:02000002B0004C
:1040000000400B00A67C0B00000006000C0005021F
:084010000401B41400000000DB
:0440180084750B00A0
:10401C0010F8012B11F8013B012A28BF9A42F7D066
:10402C00D01A7047034613F8012B002AFBD1181A3B
:10403C000138704709480A49884208B505D0094A31
:10404C00824202D0121A03F0E7F80748074A00210F
:10405C00121A03F009F9014808BD00BFE8E5032076
:10406C00047C0B005CE603205CE60320F0E70320F5
:10407C0070B5074E074C02F001FBA41BA4080025E9
:10408C00AC4200D170BD56F8043B98470135F7E7B8
:10409C00BC7B0B00E07B0B0000F074B808B500F0A3
:1040AC00C1F8BDE8084002F0A1BA00F05DBB00F019
:1040BC005BBB00F061BB000008B5034A03490C2050
:1040CC0000F09EFAFEE700BF05440B0098750B004C
:1040DC000078B0FA80F040097047012303707047F4
:1040EC00704700000A4B10B50446036001F018FC41
:1040FC00214601F050FE02F0CDFB02F0BFFB204642
:10410C00044B40F8043B01F0E1FC204610BD00BF1D
:10411C0000760B00E8750B0010B50446FFF7E2FFC4
:10412C0020462421FFF7C5FF204610BD0EB400B574
:10413C008CB00DAA4FF0200C52F8041B0392CDE961
:10414C0000120023016804AA1E20CDE904C300F06C
:10415C0067FA0CB05DF804EB03B0704708B5024980
:10416C000248FFF7E3FF08BDFF760B00D0E6032003
:10417C0008B502490248FFF7D9FF08BDAD750B0021
:10418C00D0E6032070B590B000F00AFE00F024FEDB
:10419C0000F006FE2049214C002201F0CCF900F081
:1041AC00FFFD1F49002201F0A7F903A800F0EEFF64
:1041BC000FCC06AD0FC506AD0FCD26680BAC0FC4EA
:1041CC000BA8266000F0CCFC04460BA8DCB900F070
:1041DC00C9FC0094ADF80A0002230DF10A02032178
:1041EC0003A800F0C8FF00F0DBFD002203A900F0DB
:1041FC0069FE00F0D5FD142100F0F5FD039800F0E8
:10420C00BBFA10B070BD00F0AFFC00230093024667
:10421C0010230721E4E700BF69410B008CE6032063
:10422C007D410B00704770B5D0E90053142604464D
:10423C0006FB0356AE4204D0284600F025FB14358D
:10424C00F8E7206800F098FA204670BD8842F8B56F
:10425C0004460D46164616D9904215D2A2F1140604
:10426C00751AA1F114072C44B7421CD02CB131465D
:10427C00204600F071FB337C2374304600F004FBC5
:10428C00143E143CF0E70ED0B5420CD02CB12946AC
:10429C00204600F061FB2B7C2374284600F0F4FAD6
:1042AC0014351434F0E7F8BD2DE9F0410023C0E9D2
:1042BC00003383604F689F4204460E4623DD4FF067
:1042CC00140808FB07F000F04FFA0546D8B1D4E902
:1042DC00001208FB0212FFF7B9FF206800F04CFA3D
:1042EC002560A760D6E9007308FB0378B84508D0B1
:1042FC003946284600F04AFB3B7C2B7414371435A6
:10430C00F4E7736863602046BDE8F08170B5002166
:10431C008CB0012000F0A4F9234B244A9A600024AD
:10432C00C3E90044032000F093F9CDE90044029462
:10433C0002F0B0FA1E4C0546694603A8FFF7B4FF1D
:10434C00264603A906A8FFF7AFFF1A4B46F8043B15
:10435C0006A909A8FFF7A8FF09AA1E21304601F0FB
:10436C00FDFD09A8FFF75FFF06A8FFF75CFF124BE6
:10437C002360256203A8FFF756FF104B236002F061
:10438C0089FA4FF4165102F075FA01F0C9FA214678
:10439C0001F0BAFC6846FFF746FF094909480CB022
:1043AC00BDE8704000F052BC5CE603200000FFFF4B
:1043BC0068E60320E8750B00C8770B0000760B004D
:1043CC00BA750B008CE6032008B5024B1B689B6882
:1043DC00019308BD6802030008B5024B1B68DB683B
:1043EC00019308BD6802030008B5024B1B685B68AB
:1043FC00019308BD1802030008B5024B1B68DB686B
:10440C00019308BD1802030008B5024B1B685B69D9
:10441C00019308BD1802030008B5024B1B689B688A
:10442C00019308BD7802030008B5024B1B689B6C16
:10443C00019308BD7802030008B5024B1B68DB6CC6
:10444C00019308BD7802030008B5024B1B681B6D75
:10445C00019308BD7802030008B5024B1B689B6DE5
:10446C00019308BD7802030008B5024B1B681B6E54
:10447C00019308BD7802030008B5034B1B68D3F801
:10448C009830019308BD00007802030008B5034B77
:10449C001B68D3F8F030019308BD000078020300CC
:1044AC0008B5024B1B685B6C019308BD4802030006
:1044BC0008B5024B1B689B6C019308BD48020300B6
:1044CC0008B5024B1B68DB6C019308BD4802030066
:1044DC0008B5024B1B685B6D019308BD48020300D5
:1044EC0008B5024B1B685B69019308BD64020300AD
:1044FC0008B5024B1B689B68019308BD3C02030086
:10450C0008B5024B1B68DB68019308BD3C02030035
:10451C0008B5024B1B681B69019308BD3C020300E4
:10452C0008B5024B1B685B69019308BD3C02030094
:10453C0008B5024B1B689B69019308BD3C02030044
:10454C0008B5024B1B68DB69019308BD3C020300F4
:10455C0008B5024B1B689B6A019308BD3C02030023
:10456C0008B5024B1B68DB6A019308BD3C020300D3
:10457C0008B5024B1B681B6C019308BD3C02030081
:10458C0008B5024B1B681B68019308BD4C02030065
:10459C0008B5024B1B685B68019308BD4C02030015
:1045AC0008B5024B1B689B68019308BD4C020300C5
:1045BC0008B5024B1B681B69019308BD4C02030034
:1045CC0008B5024B1B685B69019308BD4C020300E4
:1045DC0008B5024B1B689B69019308BD4C02030094
:1045EC0008B5024B1B68DB69019308BD4C02030044
:1045FC0008B5024B1B681B6A019308BD4C020300F3
:10460C0008B5024B1B685B6B019308BD600203008D
:10461C0008B5024B1B681B6D019308BD60020300BB
:10462C0008B5024B1B685B6D019308BD600203006B
:10463C0008B5024B1B68DB6E019308BD60020300DA
:10464C0008B5024B1B681B6F019308BD6002030089
:10465C0008B5024B1B685B68019308BD2002030080
:10466C0008B5024B1B68DB6A019308BD20020300EE
:10467C0008B5034B1B68D3F88830019308BD0000C4
:10468C002002030008B5034B1B68D3F89430019348
:10469C0008BD00002002030008B5024B1B685B68D4
:1046AC00019308BD4002030008B5024B1B689B68D0
:1046BC00019308BD4002030008B5024B1B68DB6880
:1046CC00019308BD4002030008B5024B1B681B692F
:1046DC00019308BD4002030008B5024B1B685B69DF
:1046EC00019308BD4002030008B5024B1B689B698F
:1046FC00019308BD4002030008B5024B1B68DB693F
:10470C00019308BD4002030008B5024B1B681B6AED
:10471C00019308BD4002030008B5024B1B681B6BDC
:10472C00019308BD4002030008B5024B1B685B6B8C
:10473C00019308BD4002030008B5024B1B681B6CBB
:10474C00019308BD4002030008B5024B1B685B6C6B
:10475C00019308BD4002030008B5024B1B68DB6BDC
:10476C00019308BD4402030008B5024B1B681B688B
:10477C00019308BD1C02030008B5024B1B685B6863
:10478C00019308BD1C02030008B5024B1B689B6813
:10479C00019308BD1C02030008B5024B1B685B6A41
:1047AC00019308BD1C02030008B5024B1B68DB6AB1
:1047BC00019308BD1C02030008B5024B1B68DB6BA0
:1047CC00019308BD1C02030008B5024B1B681B6C4F
:1047DC00019308BD1C02030008B5024B1B685B6CFF
:1047EC00019308BD1C020300002240681146FFF72C
:1047FC008BBF002240681146FFF796BF406800222D
:10480C00FFF78ABF4068002281F00101FFF774BFF7
:10481C00002340681A461946FFF766BF002340681C
:10482C001A461946FFF758BF002240681146FFF799
:10483C004BBF002240681146FFF736BF406800228C
:10484C000221FFF739BF002340681A46FFF724BF47
:10485C00024B03225A60024A1A607047A0E60320FA
:10486C0018760B00054B02221A60054B054A9A601C
:10487C000020C3E90000FFF7EBBE00BFB4E6032045
:10488C00A8E603200000FFFF10B504460068FFF700
:10489C0073FF204610BD10B50446006808B1FFF741
:1048AC006BFF0023C4E90133236010BD38B5044607
:1048BC000D4600680131FFF767FF10B1C4E9000530
:1048CC00012038BD10B50368044623B143688B4200
:1048DC0001D3012010BD2046FFF7E8FF0028F9D0D6
:1048EC00A368002BF5D122681370F2E737B50D469B
:1048FC00114601920446FFF7E5FF019A28B92046BC
:10490C00FFF7C9FF204603B030BDA26029462068DE
:10491C0002F082FC2268A3680021D154F2E738B57A
:10492C00054600680C4668B16A688B689A4207D3E2
:10493C00096802F0E6FCA368AB600023A36038BDF5
:10494C00FFF71AFF23682B6063686B60A368AB608A
:10495C000023C4E90033F1E710B50023C0E90033AC
:10496C00044683600373FFF7DAFF204610BD8842CC
:10497C0010B5044605D00B682BB18A681946FFF7B1
:10498C00B5FF204610BDFFF786FFFAE710B50023F0
:10499C000446C0E9003383600373FFF7E8FF204649
:1049AC0010BD7047064B994210B500F10C0405D0B0
:1049BC00084602F001FB002808BF0024204610BD69
:1049CC0028770B0010B530210446FFF772FB204608
:1049DC0010BD3021FFF76DBBF0B50025EC1C8C42EF
:1049EC000DD86E1C445D875D974205D12644B142BB
:1049FC0005D31D60601CF0BD01342544EEE700209A
:104A0C00F9E7034608461B68D3E900211047012A41
:104A1C0038B5044602D10B68236003E0022A03D0A8
:104A2C00032A0DD0002038BD08200D68FFF73DFB90
:104A3C0003460028F0D095E8030083E80300EBE779
:104A4C0000680028EED00821FFF733FBEAE710B529
:104A5C008368044613B1032201469847204610BDD3
:104A6C0010B54368013B0446436063B903689B6817
:104A7C009847A368013BA3602BB923682046DB68E9
:104A8C00BDE81040184710BDA0F13003DAB2092A76
:104A9C0001D818467047A0F16103052B01D857388F
:104AAC007047A0F14103052B94BF37384FF0FF300E
:104ABC007047000010B500230370044B04461868BF
:104ACC00FFF7FEFC01232370204610BDBCE603203B
:104ADC0010B5037804461BB1024B1868FFF7F8FCBD
:104AEC00204610BDBCE6032082B003460868496826
:104AFC006A4603C26A4603CA18601846596002B077
:104B0C00704708B582798B799A4206D1062202F059
:104B1C0073FBB0FA80F0400908BD0020FCE74FF0B1
:104B2C00FF33036083800020704708B502460021E4
:104B3C0001604160FFF7F3FF9171104608BD000062
:104B4C0010B501230361054B024603F1100153F824
:104B5C00044B42F8044B8B42F9D110BD72750B001B
:104B6C0000697047808970477047000001232DE968
:104B7C00F3410361344B0C460646024603F1100127
:104B8C0053F8040B42F8040B8B42F9D144B32421A3
:104B9C00204602F0D2FB04284FF0000523D1ADF8DB
:104BAC00045001AFA51C063415F8020CFFF76CFF7E
:104BBC00B0F1000812DB15F8010CFFF765FF0028B7
:104BCC000CDB023540EA0810A54207F8010BEBD1CB
:104BDC009DF8053033739DF80430737300233361F3
:104BEC0002B0BDE8F0814FF010082421204602F0FD
:104BFC00A4FBA84207D842460021304602B0BDE8CB
:104C0C00F04102F031BBB8F1000FE9D0605DFFF765
:104C1C003BFF030615D4000108F1FF38C7B206F8B4
:104C2C0008702421204602F088FB0135A84208D9DF
:104C3C00605DFFF729FF40B20028A4BF384306F897
:104C4C0008000135D1E700BF72750B0013B504469F
:104C5C000191FFF775FF20460199FFF787FF20466A
:104C6C0002B010BD10B5D0E9063203EBC20293427C
:104C7C00184606D0046824888C4203F10803F6D148
:104C8C0010BD0020FCE7000070B50025056006464D
:104C9C003020FFF70AFA044688B10123C0E901333A
:104CAC00094B03604FF6FF7383810E30FFF73DFF16
:104CBC00C4E90655C4E90855C4E90A55A5757460DC
:104CCC000C343460304670BD14770B0037B50D468C
:104CDC00044601A8FFF7EEFE2A68D2F802302360E2
:104CEC00D2F80630636001A8FFF7F2FE204603B04D
:104CFC0030BD30B5054687B00C4601A8FFF7DAFE8B
:104D0C002A68236812881B889A420DD1294602A86A
:104D1C00FFF7DCFF214604A8FFF7D8FF04A902A87F
:104D2C00FFF7EFFE044600B9002401A8FFF7D0FE00
:104D3C00204607B030BD000010B504466420FFF7D4
:104D4C00B4F968B10023C0E90033C0E90233C0E90B
:104D5C000433C0E906330362C362C363C364C3652F
:104D6C00206020B90A4A0B490A20FFF749FC0020B1
:104D7C00FFF752FB20B1064A07490A20FFF740FC17
:104D8C00216806480022FFF781FB204610BD00BFBA
:104D9C0005440B004C760B008A760B00C9520B00B5
:104DAC0010B50A4C2378BFF35B8FDB070CD420467D
:104DBC00FFF78EF940B10648FFF7BEFF2046FFF71C
:104DCC008CF9044802F00AFA014810BDB8E6032039
:104DDC00C0E60320B94F0B0008B50020FFF71CFB01
:104DEC0000EAE07008BD30B585B000240C23ADF8A6
:104DFC0006300D460323214601A8CDE90244ADF847
:104E0C000430FFF719FB002805DB214601A8ADF89B
:104E1C000850FFF709FB05B030BD19B90A46084622
:104E2C00FFF712BBD1E900010022F9E770B5D0E918
:104E3C000053044605EB0316AE4204D02846FFF798
:104E4C0023FD1035F8E72068FFF796FC204670BD6F
:104E5C0038B5141E4368054602DB62189A4200DD21
:104E6C005C1A2A68501801191A44521A02F0E2F915
:104E7C006A68121B6A6038BD37B50A4604460D468F
:104E8C0001ABD0E90001FFF7A7FD024638B101994B
:104E9C002046FFF7DDFF29462046FFF7EDFF03B064
:104EAC0030BD10B50C4629B90A460846BDE810407D
:104EBC00FFF7D2BA01212046FFF7DEFFD4E900014B
:104ECC000022F3E738B504461546FFF7A6FF002885
:104EDC000ADB29462046FFF7E4FF002804DBBDE887
:104EEC0038400020FFF7C0BA38BD000038B50023A9
:104EFC000446836008200D46FFF7D7F818B12B68DD
:104F0C0003606B684360034BE360034B2060A3605A
:104F1C00204638BD0F4A0B001B4A0B000B68036080
:104F2C0013B15A6801325A60704710B551F8043BFE
:104F3C00044640F8043BFFF7F1FF204610BD10B5C6
:104F4C000446006808B1FFF78BFD204610BD70B514
:104F5C00D0E90053044605EBC306AE4204D0281D2D
:104F6C00FFF7EDFF0835F8E72068FFF705FC204652
:104F7C0070BD70B5D0E90053044605EBC306AE42D4
:104F8C0004D0281DFFF7DBFF0835F8E72068FFF792
:104F9C00F3FB204670BD10B504462430FFF7E9FF43
:104FAC0004F11800FFF7D3FF10BD000070B5174BCC
:104FBC001C6854B304F15400FFF749FD04F144009C
:104FCC00FFF745FD04F13400FFF741FD04F1240027
:104FDC00FFF73DFDD4E9065305EBC306AE4204D002
:104FEC00281DFFF7ACFF0835F8E7A069FFF7C4FBF5
:104FFC0004F10C00FFF7BDFF2046FFF7A8FF204689
:10500C006421BDE87040FFF754B870BDC0E60320C2
:10501C00826810B50AB901F0CBFFBDE81040C36837
:10502C00184738B50D1E0446006803DDFFF7ACFBCE
:10503C0018B938BDFFF7A0FB00202060A560012047
:10504C00F7E708B583688B4202DAFFF7EAFF08BD81
:10505C000120FCE72DE9F0410F4641681D4619443B
:10506C00836899420446904612DC266862683E4486
:10507C00D21B3146701902F0DDF82A464146304603
:10508C0002F0CAF863682B4463600120BDE8F0812C
:10509C00FFF7C7FF0028E8D1F8E7F8B50D46D0E9CF
:1050AC0001139942044616460BDA2768626879198F
:1050BC00521B481C02F0BEF87E55636801336360D6
:1050CC00F8BD0131FFF7ADFF0028EED1F8E70A4635
:1050DC004168FFF7E2BF2DE9F74304461D460F4632
:1050EC0001AB90460A46D0E900019DF82890FFF7E5
:1050FC0073FCAE1C63680246B9F1000F26D128B3CD
:10510C0033441B1AFF2B09D801992046FFF7A0FE48
:10511C00616820463144FFF794FF18B9606803B00A
:10512C00BDE8F0836A1C0199D2B22046FFF7B5FFA7
:10513C0001993A4601312046FFF7AFFF01992B4602
:10514C00424602312046FFF785FFE7E7F118FF29B9
:10515C00E4D82046FFF775FF0028DFD0691CC9B2E0
:10516C002046FFF7B4FF39462046FFF7B0FF6168D1
:10517C002B464246E6E730B49DF808501AB102952A
:10518C0030BCFFF7A8BF406830BC70471FB5002388
:10519C00C0E9003383600622009301238DF80F20B1
:1051AC0019460DF10F020446FFF7E5FF204604B047
:1051BC0010BD8842F8B504460D46164614D99042E7
:1051CC0013D2A2F10806751AA1F108072C44B742B4
:1051DC0018D01CB131462046FFF7A7FE301DFFF753
:1051EC00AEFE083E083CF2E70CD0B5420AD01CB12A
:1051FC0029462046FFF799FE281DFFF7A0FE08352B
:10520C000834F2E7F8BDF7B5044646686846FFF780
:10521C008CFED4E901739F4212DB0137002F29DD8C
:10522C00F800FFF7A1FA0546F0B1D4E9001201EB42
:10523C00C202FFF7BEFF2068FFF79EFA2560A76049
:10524C002368626803EBC60603EBC202314606F123
:10525C000800FFF7AEFF1EB169463046FFF765FE4A
:10526C00636801336360012501A8FFF768FE2846D7
:10527C0003B0F0BD0025DEE7F8B5D0E900430546E4
:10528C000F4604EBC306A64205D039462046FFF76D
:10529C0030FD08B114B9F8BD0834F4E7201DFFF750
:1052AC004EFED5E9003204F1080103EBC2022046A0
:1052BC00FFF77FFF6B68013B6B60ECE72DE9F0417A
:1052CC0005468EB003A80C46FFF7F4FB2E68F31EC0
:1052DC000D2B3CD8DFE813F00E0057003B00D30039
:1052EC003B003B003B003B003B009D009D009D00B4
:1052FC009D009D0004A8FFF7C7FC049BAA891A8097
:10530C006968049808310230FFF7EEFB04A906A87F
:10531C00FFF70BFE06A904F11800FFF774FF054612
:10532C0007A8FFF70CFEC5B92023CDE906355E4B67
:10533C005E49009306AA2B460120FFF769F9049BEE
:10534C0029461888FFF798F805A8FFF7F8FD03A879
:10535C00FFF7BEFB0EB0BDE8F081E36A23B104A9F0
:10536C0004F12400FFF754FE05A8FFF7E8FD202107
:10537C000023CDE906134E4A00924C4906AA01209F
:10538C00FFF746F9E3E7A9892046FFF76BFC0646D1
:10539C000028DCD00568D5E906324FF6FF7129806C
:1053AC0003EBC2029A4203D053F8080B4180F9E791
:1053BC00D5E9037307EBC308B84504D0381DFFF7D4
:1053CC00BEFD0837F8E700232B61D5E9067307EB20
:1053DC00C308B84504D0381DFFF7B1FD0837F8E70E
:1053EC000023EB61AB72E36B23B1314604F1340063
:1053FC00FFF70EFE33684FF6FF721A80314604F148
:10540C001800FFF739FF20220023CDE90623294A93
:10541C00B2E7A9892046FFF725FC002897D0E36C5A
:10542C00002B94D000230D2EADF8163001D0102E89
:10543C0017D1002369681A4606258DF8153004919A
:10544C008DF814200690DDE9040109AB8DF81C6081
:10545C00089583E80300236D06A904F144009847DE
:10546C0075E70F2E01BF2B7A696803F0010208253E
:10547C000FBFC3F340031A4619461D46DDE7A98941
:10548C002046FFF7EFFB014600283FF460AFE36DC9
:10549C00002B3FF45CAF6B68069306AA236E04F1F5
:1054AC005400984753E700BFCC760B0063760B0093
:1054BC00F2760B00FC760B0013B50B460246D0E9D6
:1054CC0000016C4684E8030093E8030082E80300C3
:1054DC0094E8030083E8030002B010BD38B505461C
:1054EC000C46FFF7E9FFAB68A268AA60A360EB6803
:1054FC00E268EA60E36038BD10B504688AB0343401
:10550C00B9B1CDE9001202A86946FFF7EFFC002300
:10551C0006A902A80893FFF7E1FF214606A8FFF7AA
:10552C00DDFF06A8FFF793FA02A8FFF790FA0AB07E
:10553C0010BD0491EBE710B504688AB02434B9B1FE
:10554C00CDE9001202A86946FFF7D0FC002306A99A
:10555C0002A80893FFF7C2FF214606A8FFF7BEFF7B
:10556C0006A8FFF774FA02A8FFF771FA0AB010BD8B
:10557C000491EBE7024800230360FEF791BF00BFE4
:10558C00BCE60320F8B506460D468F180024BD4234
:10559C000CD0336815F8011B9B6830469847031EE6
:1055AC0001DB1C44F3E7002C08BF1C462046F8BD69
:1055BC0013B50446084659B10191FEF733FD236833
:1055CC000199DB680246204602B0BDE8104018473E
:1055DC0002B010BD03689B68184730B58BB0002330
:1055EC00012A8DF8243098BF0A2209AC0D46B1FB74
:1055FC00F2F101FB125303F0FF03092B94BF30337C
:10560C003733DBB2AA4204F8013DEFD92146FFF74C
:10561C00CFFF0BB030BD80680368DB68184770475C
:10562C00084611B10B685B681847704770477047A4
:10563C007047704738B504460D4600682E2101F0BE
:10564C0056FE2368C31A2B6023B1037803B10130D3
:10565C0023682060184638BD10B50C210446FEF7AF
:10566C0028FD204610BD10B504210446FEF721FD8F
:10567C00204610BD10B504210446FEF71AFD204645
:10568C0010BDFEF71DBF08B5FEF7C2FCB0FA80F0E6
:10569C00400908BD704710B50C4601F0FBF8844278
:1056AC0010D001F05DFC844205D101F059FCBDE83D
:1056BC00104001F06EB92CB1236820465B68BDE840
:1056CC001040184710BD0B6803604B68436013B162
:1056DC005A6801325A60704713B504460846019166
:1056EC00FEF7A0FC01990246204602B0BDE810402E
:1056FC0001F00ABC13B5044608460191FEF792FC72
:10570C0023680199DB680246204602B0BDE81040D0
:10571C00184707B503688DF80710DB6801220DF1F7
:10572C000701984703B05DF804FB0A6802604A68F9
:10573C0042600022C0E9022210B502618C688460CC
:10574C00CC68C4600C698A60CA6004610A6110BDCF
:10575C002DE9F74FD0E900844FF0140A00930AFBAF
:10576C0004F4184BA41017465C434546002C21DD6D
:10577C0066100AFB06F005EB00093A46B9F804B0CE
:10578C00285801915F4528BF5A4601F0C2FD0028F8
:10579C0001994FF001030BD15F4503D1009A1370AF
:1057AC003446E3E7FCD9A61B09F11405013EF7E7E3
:1057BC00F9DBF5E7A5EB08050248AD10684303B02B
:1057CC00BDE8F08FCDCCCCCC7FB50369057E0191C3
:1057DC0003B3F9B1002600F10C04039603A901A848
:1057EC00FFF728FF0146A8B10DF10B03039A8DF8C2
:1057FC000B602046FFF7ACFF9DF80B3053B12368CC
:10580C00142404FB0034083434F9023C002BA8BFE8
:10581C00DDB2E3E7284604B070BD0EB4F0B58CB031
:10582C0000AF07F14405044655F8042B7A602B466B
:10583C00202107F11000FD60FEF7AEFF1F287A68EB
:10584C001AD900F1080323F007036E46ADEB030DE4
:10585C00411C2B466846FD60FEF79EFF021E04DDD0
:10586C0023686946DB6820469847B5463037BD4605
:10587C00BDE8F04003B070470028F7D0236802461B
:10588C00DB6807F1100120469847EFE710B5094C8B
:10589C002378BFF35B8FDB0709D42046FEF718FC97
:1058AC0028B12046FEF719FC034801F097FC034889
:1058BC0010BD00BFC8E6032039560B00E8E50320F5
:1058CC0010B5094C2378BFF35B8FDB0709D4204656
:1058DC00FEF7FEFB28B12046FEF7FFFB034801F064
:1058EC007DFC034810BD00BFCCE60320A1560B0085
:1058FC00ECE5032038B500250446C0E90055C0E9A5
:10590C0004558560856140F8245FFEF7C9FDFFF7FB
:10591C00BDFFE061FFF7D4FF25732062204638BD40
:10592C0010B50A4C2378BFF35B8FDB070CD42046F1
:10593C00FEF7CEFB40B10648FFF7DCFF2046FEF732
:10594C00CCFB044801F04AFC014810BDC4E603201E
:10595C00D4E60320815E0B00024A0349034800236E
:10596C00FEF76EBE655C0B00F15B0B00715B0B0010
:10597C0000231A4619461846FEF762BE37B58D68E5
:10598C0004466846FFF79FFE6A462946204601F00A
:10599C00DBF901A8FFF7D3FA204603B030BD37B5C9
:1059AC00CD6804466846FFF78EFE6A4629462046B7
:1059BC0001F0A6F901A8FFF7C2FA204603B030BDEA
:1059CC0037B50D6904466846FFF77DFE6A462946E1
:1059DC00204601F03EF901A8FFF7B1FA204603B0CA
:1059EC0030BD000070B58AB00D46014604A8FFF723
:1059FC00C5FF144E04A801F0BFF9E8B104A968462C
:105A0C00FFF7CDFF02983146FFF73DFE044610B17B
:105A1C002C1E18BF012401A8FFF791FA002CE9D025
:105A2C0004A96846FFF7CCFF684601F048F92860E6
:105A3C0001A8FFF784FADDE705A8FFF780FA0AB0A2
:105A4C0070BD00BF30770B0037B50C4620461349AC
:105A5C001546FEF7DDFA50B900F01CFF4FF4165155
:105A6C0000F008FF03B0BDE8304000F013BF0C4954
:105A7C002046FEF7CDFA78B94FF4165301A9284603
:105A8C000193FFF7AFFF01F06BFA019900F07EFF75
:105A9C0001F066FA03B030BD0020FBE735770B0050
:105AAC003C770B0070B5D0E900531426044606FB76
:105ABC000356AE4205D005F10800FFF7F3FF14358D
:105ACC00F7E72068FEF758FE204670BD10B5044677
:105ADC000C30FFF7E7FF2046FFF7A8F9204610BD72
:105AEC0010B5044B044640F8043BFFF7EFFF20468B
:105AFC0010BD00BFE8750B0010B50446FFF7F0FFB2
:105B0C0020462421FEF7D5FA204610BD10B5034BD4
:105B1C0003600446FFF7E4FF204610BDE0770B005E
:105B2C0010B50446FFF7F2FF20462421FEF7C1FA18
:105B3C00204610BD0022C0E9002210B582600C681E
:105B4C0004604C6844608C680A604A6084608A60B7
:105B5C0010BD10B5036804461868FEF7B9FC204662
:105B6C0010BD00002DE9F04F87B0804603931C4B0D
:105B7C005B68C3F30803894616466BB9FFF7D0FE82
:105B8C00044600F12403406A0593FFF77AFD237B5A
:105B9C002BB105A8FFF7DDFF07B0BDE8F08F01239F
:105BAC002373D4E900535FFA89F905EB830AAA45FC
:105BBC0012D055F8047B3146381DFFF705FE8145A0
:105BCC00F5D33B68039A0092D3F808B04A463346A3
:105BDC0041463846D847EAE700232373D9E700BF8C
:105BEC0000ED00E02DE9F74F9B461A4B5B68C3F3C1
:105BFC0008038046894616466BB9FFF791FE0446AA
:105C0C0000F12403406A0193FFF73BFD237B2BB18A
:105C1C0001A8FFF79EFF03B0BDE8F08F01232373AB
:105C2C00D4E90053F6B205EB830A55450ED055F86E
:105C3C00047B5946381DFFF7C7FD8642F5D33B68F8
:105C4C004A46DB68414638469847EEE70023237303
:105C5C00DEE700BF00ED00E02DE9F341164B5B6879
:105C6C00C3F3080305460F461BBBFFF759FE00F1B3
:105C7C0024030446406A0193FFF703FDD4E9006353
:105C8C00462406EB8308B04509D101A8FFF761FF54
:105C9C00A542B4BF0020012002B0BDE8F08156F847
:105CAC00040B39460430FFF78FFD8442A8BF04462D
:105CBC00E9E70020F0E700BF00ED00E0F8B5D0E91F
:105CCC0001539D4204460E460DDB6F1C002F0068ED
:105CDC0004DDB900FEF758FD18B9F8BDFEF74CFD10
:105CEC0000202060A7602768626807EB850192009E
:105CFC00A2EB8502081D01F09DFA47F82560636848
:105D0C00013363600120E8E737B500F12403044652
:105D1C00406A01930D46FFF7B4FCD4E9003203EB63
:105D2C008202934219460BD00968A94203F104037D
:105D3C00F7D101A8FFF70DFF0025284603B030BDB1
:105D4C0029462046FFF7BAFF05460028F1D06368C4
:105D5C00012B01D1FFF700FE01A8FFF7FAFEECE7DB
:105D6C0070B50446D0E900020B4600EB8202824279
:105D7C000FD001461D6851F8046BAE4207D1521A80
:105D8C0001F058FA6368013B6360012070BD08465E
:105D9C00EDE70020FAE71FB500F124030446406A42
:105DAC0001910393FFF76DFC01A92046FFF7D8FF83
:105DBC0018B163680BB9FFF7DBFD03A8FFF7C9FE49
:105DCC0004B010BD70B5D0E904561823044603FB8B
:105DDC000656AE4215D005F110012046FFF7C0FF64
:105DEC0063680BB9FFF7C4FDE06929690368DB68D8
:105DFC009847696919B1206A0368DB6898471835B8
:105E0C00E7E7D4E90453182606FB0356AE4204D048
:105E1C002846FEF739FD1835F8E70023636170BD9D
:105E2C0073B50446FFF7A4FD04F12403606A0193E3
:105E3C00FFF727FC2046FFF7C5FF01A8FFF789FEF7
:105E4C00606A08B1FEF734FBD4E90453182606FB4C
:105E5C000356AE4204D02846FEF716FD1835F8E777
:105E6C002069FEF789FC2068FEF786FC204602B00C
:105E7C0070BD00000148FFF7D3BF00BFD4E603207C
:105E8C008842F8B504460D46164615D9904214D2F0
:105E9C00A2F11406751AA1F114072C44B7421AD0BA
:105EAC001CB131462046FFF740FC06F10800FFF715
:105EBC00F9FD143E143CF1E70DD0B5420BD01CB1EA
:105ECC0029462046FFF731FC05F10800FFF7EAFDF3
:105EDC0014351434F1E7F8BD8842F8B504460D4684
:105EEC00164614D9904213D2A2F11006751AA1F1DC
:105EFC0010072C44B74218D01CB131462046FEF78F
:105F0C002BFD3046FEF7C0FC103E103CF2E70CD0E7
:105F1C00B5420AD01CB129462046FEF71DFD284685
:105F2C00FEF7B2FC10351034F2E7F8BD70B50E1E5A
:105F3C00054611DD3001FEF717FC044658B1D5E9D2
:105F4C00001201EB0212FFF7C7FF2868FEF714FCE2
:105F5C002C60AE60012070BD0024F6E72DE9F04FF7
:105F6C00904695B000230391D8F804100A9346226A
:105F7C009942C0E90033C0E90233C0E90433CDE9EA
:105F8C0008330446027623DCD8E90057142303FBBC
:105F9C000757AF423BD029460BA8FEF7DDFC0BA9F7
:105FAC000FA8099EFEF7D8FCDDE9091399421BDA0C
:105FBC00089B099A03EB061603EB0212314606F115
:105FCC001000FFF789FFEEB9099B0133099311E02B
:105FDC0008A8FFF7ABFF0028D6D108A8FEF726FFCC
:105FEC00204615B0BDE8F08F013108A8FFF79EFFE1
:105FFC000028DDD10FA8FEF747FC0BA8FEF744FCE8
:10600C001435C6E70FA93046FEF7A6FCDCE70026E0
:10601C00CDE90B660D964FF01409DDE908239E427D
:10602C007CDA3301D35806930BB90136F5E700231C
:10603C00079309FB06F302930BAD07A906A8FFF71C
:10604C00F9FA82460028F0D04FF000038DF8173093
:10605C000146079A0DF117032846FFF779FB9DF8C7
:10606C0017700190002F4AD1BDF81C30ADF84030AC
:10607C00CDE911774FF6FF73CDF83CA0ADF8423067
:10608C001397D5E90132934217DB03F1010ABAF1F8
:10609C00000F30DD09FB0AF0FEF766FB834660B3A8
:1060AC00D5E9001209FB0212FFF7EAFE2868FEF799
:1060BC0063FBC5F800B0C5F808A02B68019A09FB72
:1060CC00023A6A68514609FB02320AF11400FFF7E2
:1060DC00D7FEBAF1000F03D00FA95046FFF725FBEE
:1060EC006B6801336B6011A8FFF7DCFC3FB10BA8A8
:1060FC00FFF7D8FC71E7BB46D8E70127F3E7019B14
:10610C002D6809FB0355069B1B782BB9D8F800307A
:10611C00029A13441B7CEB8008358EE721682260C1
:10612C0062686360A36809920A9A0A93E368A260A2
:10613C000B9A0B932369E2600C9A0C9363692261AE
:10614C000D9A0D93039B089162612376CFE70000B3
:10615C00F0B5044687B00D462646194668461746E4
:10616C00FEF7A2F80B4B46F8043B694603A8FEF772
:10617C009BF803AA39463046FFF7F0FE03A8FEF75A
:10618C0052F86846FEF74FF8034B23602046256211
:10619C0007B0F0BDE8750B00C8770B00F0B50F46E3
:1061AC0085B01D490A9C384616461D46FDF730FF42
:1061BC00C0B9A4B1294601A8FFF7BCFC174924209B
:1061CC0000F0F2FE054630B101AB32462146FFF736
:1061DC00BFFF134B2B6001A8FEF725F82C46204679
:1061EC0005B0F0BD0F493846FDF712FF90B9002CF1
:1061FC00F5D0294601A8FFF79DFC0849242000F0A2
:10620C00D3FE05460028E6D001AB32462146FFF707
:10621C009FFFE0E70024E2E744770B0031790B00A5
:10622C00E0770B0048770B00014B024A1A6070476D
:10623C00D0E6032059770B002DE9F047089DD0F8E4
:10624C00209004460E461746984600F023FB8145E5
:10625C004CD02B79190704D56A6954492046FFF7AD
:10626C00DCFAB8F1000F0DD05B212046FFF751FA94
:10627C0041462046FFF73EFA23684D49DB6802226F
:10628C00204698472B79DA0723D5D5F808802F219B
:10629C00404601F05EF808B100F101084146204685
:1062AC00FFF728FA2B799B0708D53A212046FFF7F0
:1062BC0030FAEA683F492046FFF7AFFA2A7923689B
:1062CC0012F0040FDB6814BF3B493C490222204604
:1062DC0098472B7958071DD529690B461A4613F890
:1062EC00010B60B1202808D11946F7E7344800F0BB
:1062FC00C8FB0028ADD0BDE8F0872828EED1236874
:10630C00521ADB682046984723682E49DB68042222
:10631C002046984700213846FEF78AF90146204668
:10632C00FFF7E8F923682549DB68022220469847E5
:10633C001EB131462046FFF7DDF92B7913F0300FF3
:10634C002CD023682049DB680222204698472B7901
:10635C00D9060AD523681D49DB68072220469847D1
:10636C00AA691B492046FFF758FA2B799A0611D5D2
:10637C00DB0605D523681049DB68022220469847C6
:10638C0023681449DB6820460A229847E9692046AD
:10639C00FFF7B0F95D212046FFF7BBF923680E49E2
:1063AC00DB6820460222BDE8F04718475D770B00FA
:1063BC0064770B0067770B006A770B006F770B0025
:1063CC0038E703206D770B0072770B0075770B00A5
:1063DC007D770B0080770B008B770B002DE9F0415C
:1063EC000446076A0D46164600F054FA874207D059
:1063FC00206A036832462946DB68BDE8F04118473D
:10640C00034800F03EFB0028F2D0BDE8F08100BF4D
:10641C0038E703202DE9F04385B0D0F820900C9C90
:10642C0005460F4690461E4600F034FA814505D1CC
:10643C00494800F026FB002840F08A802B6A474A26
:10644C0001924FF0000901A803938DF8089000F019
:10645C00BCFC49464046FEF7EBF841498046012218
:10646C0001A800F041FD4146FFF736F93FB13D4927
:10647C00012201A800F038FD3946FFF72DF93EB195
:10648C003949012201A800F02FFD3146FFF724F90C
:10649C002379DF070ED5A6682F21304600F059FF6F
:1064AC0000B1461C3149012201A800F01DFD314606
:1064BC00FFF712F923799E0707D52D49022201A86F
:1064CC0000F012FDE16800F08DFC2379580714D51B
:1064DC00266933461F4613F8012B2AB1202A01D115
:1064EC001E46F7E7282AF5D12249022201A800F01E
:1064FC00FBFCBA1B314600F007FD2379190707D5C1
:10650C001D49012201A800F0EFFC616900F07CFC40
:10651C002379DA0608D5042218490DEB020000F0A5
:10652C00E3FCA16900F05EFC23799B0607D51449B6
:10653C00062201A800F0D8FCE169FFF7CDF801A80C
:10654C0000F02DFC286A0F4903680222DB6898478B
:10655C0005B0BDE8F08300BF38E70320B0770B002F
:10656C003A770B008E770B00B77A0B0090770B0005
:10657C0092770B0095770B0098770B009A770B00AE
:10658C009F770B008B770B00024B1A68024B1A603B
:10659C00704700BFF0E50320FCE60320014B00220E
:1065AC009A60704700E70320014B1860704700BFEA
:1065BC00F4E5032008B50B4B43B100F06BF903680D
:1065CC001B699847002801DDAFF30080064B43B1EF
:1065DC0000F0C6FC03681B699847002801DDAFF387
:1065EC00008008BD000000000000000008B5FFF7A7
:1065FC00E1FFFDF709FF014B186008BD58E70320C8
:10660C000548064A064908B5121A00F005FE054B66
:10661C00054A1A6008BD00BF00F4032004F40320EF
:10662C00787C0B0000F403201E1C279A07B500236E
:10663C0000931A466FF07701FEF724F803B05DF86B
:10664C0004FB000007B543880A2B08D0502B0BD154
:10665C00094B1B684BB103B05DF804EB1847FFF70F
:10666C00E5FF03B05DF804FB002300931A466FF0BE
:10667C007701FEF707F8F4E714E7032010B512488A
:10668C000021FEF7A9F8114B1A68114B9A42114BD5
:10669C000CBF012200221A7001D0FFF7B1FFFDF7E9
:1066AC00A3FE044600F0E8FD0B4B13B12046AFF3FC
:1066BC00008000210848FEF74FF8BDE8104007485D
:1066CC000021FDF7D5BF00BFB5650B0000F403201A
:1066DC001E1C279A10E703200000000051660B00D7
:1066EC00704710B518210446FDF7E3FC204610BD99
:1066FC00F0B5037D062B8DB00E4600F104074FF06C
:10670C00000412D000F1080515F8011D0A223046CC
:10671C00FEF763FFAF42044419D0002CF4D02E21B5
:10672C003046FEF757FF0444EEE72F236A463946FE
:10673C000A208DF80040FDF7D3FE6846FDF772FC89
:10674C0033680246DB686946304698470446204663
:10675C000DB0F0BD10B5054B0446112240F8043BBA
:10676C00002100F081FD204610BD00BF44780B00D5
:10677C000346074A10B543F8042B01F1100251F8F7
:10678C00044B43F8044B9142F9D10A781A7010BDAE
:10679C0044780B0010B59DF8084044EA032343EA03
:1067AC00024242EA016104234160037510BD0000FE
:1067BC0007B5064B0360CB7800938B784A78097841
:1067CC00FFF7E8FF03B05DF804FB00BF44780B0053
:1067DC00417470477047704708B50021007CFDF785
:1067EC00F7FE40EAE07008BD08B50121007CFDF71A
:1067FC00EFFE40EAE07008BD08B5007CFDF7E0FE56
:10680C0020EAE07008BD08B5007CFDF7D1FE20EA57
:10681C00E07008BD13B50446007C0191FDF7D0FE75
:10682C000028019901DC607C20B1207CFDF7D8FEAA
:10683C0020EAE07002B010BD007CFDF7D9BE10B5A7
:10684C0014210446FDF735FC204610BD10B54FF45D
:10685C007A73044608460021C4E90113044B2360F3
:10686C000123207463741146FDF78AFE204610BD87
:10687C0058780B00007C0022FDF78ABE007CFDF7E7
:10688C008FBE10B514220446002100F0EDFC20460A
:10689C0010BD000010B50F4C88B003A8FFF7F1FF36
:1068AC002178BFF35B8F11F001010FD120460191CC
:1068BC00FDF70EFC019948B103AA0748FFF7C6FF84
:1068CC002046FDF70AFC054800F088FC024808B099
:1068DC0010BD00BF18E703201CE70320E1670B0085
:1068EC0070474174704708B5007CFDF731FE20EA13
:1068FC00E07008BD08B5007CFDF70AFE20EAE070E8
:10690C0008BD08B5007CFDF713FE40EAE07008BD39
:10691C0008B5007CFDF704FE40EAE07008BD007C81
:10692C00FDF70EBE37B5457C04462DB1207C03B077
:10693C00BDE83040FDF7E4BD007C0191FDF708FE99
:10694C0000280199F2DC284603B030BD10B51421A3
:10695C000446FDF7AEFB204610BD000010B54FF409
:10696C007A730446084611460022C4E90123044BFD
:10697C002360012320746374FDF7FAFD204610BDDB
:10698C0088780B00007C0023FDF7EABD0022FFF79E
:10699C00F9BF007CFDF7ACBD002240681146FDF745
:1069AC0093BE002240681146FDF7AEBE002240683F
:1069BC001146FDF7B9BE40680022FDF7ADBE406838
:1069CC00002281F00101FDF797BE002340681A46B2
:1069DC001946FDF789BE002340681A461946FDF793
:1069EC007BBE002240681146FDF75EBE4068002267
:1069FC000221FDF761BE002340681A46FDF74CBE2C
:106A0C00024B04225A60024A1A60704730E7032096
:106A1C00B8780B00002340681A46FDF73DBE40686D
:106A2C0000220221FDF748BE002240681146FDF706
:106A3C003BBE002240681146FDF746BE002340686D
:106A4C001A461946FDF748BE002340681A461946F7
:106A5C00FDF74ABE40680021FDF76EBE406800217C
:106A6C00FDF772BE4068002281F00101FDF744BEC3
:106A7C0040680022FDF750BE002240681146FDF729
:106A8C0053BE002240681146FDF73EBE2DE9F0438F
:106A9C0095B014460D460746FFF75CFE00211C22FC
:106AAC000DA8009100F0E0FB40230C9320466B46B0
:106ABC000CAA0021FDF790FC044600284BD102469D
:106ACC0001216868FDF700FE0221804622466868B5
:106ADC00FDF7FAFD009E81462146002E3BD0002991
:106AEC0039D17368022B03D00A2B11D0F669F4E765
:106AFC00B8F1000FFAD0716906A8043107ADFFF7A1
:106B0C0057FE0FCD3C1D0FC42B6823704146EDE79B
:106B1C00B9F1000FEAD07469102201A800F0A4FBAF
:106B2C0006238DF8143001AD04F1080318341868ED
:106B3C0059682A4603C20833A3421546F7D101A966
:106B4C0006A807ADFFF714FE0FCD3C1D0FC42B6834
:106B5C0023704946CAE70098FDF736FC384615B055
:106B6C00BDE8F083024B034A1A6000225A6070475A
:106B7C0038E70320F4780B0000F11003012213F81E
:106B8C00101C0129184608D153F8041C02EB4102D1
:106B9C00013A03F11003F2D17047022904BF53F8F4
:106BAC00041C5218F4E70EB4F0B588B000AF07F12E
:106BBC003405102155F8042B7A6004462B467818BE
:106BCC00FD60FDF7E9FD0F287A681AD900F108037A
:106BDC0023F007036E46ADEB030D411C2B466846B4
:106BEC00FD60FDF7D9FD021E04DD236869469B6834
:106BFC0020469847B5462037BD46BDE8F04003B067
:106C0C0070470028F7D0236802469B6807F11001F3
:106C1C0020469847EFE738B50B6803604D6843682A
:106C2C009D42044608D015B16B6801336B606068F7
:106C3C0008B1FDF715FF656038BD07B503688DF821
:106C4C0007109B6801220DF10701984703B05DF80E
:106C5C0004FB0B461146002210B5C0E90022044685
:106C6C0083600BB9204610BDFFF7D5FFFAE78368A8
:106C7C00EBB11A78032A1AD8DFE802F00417021BCA
:106C8C000520704702685B685268D05C2D2812D0D2
:106C9C00A0F13003092B0ED974280ED066280CD025
:106CAC00A0F16E03584258417047062070470020EF
:106CBC00704704207047032070470220704710B5BE
:106CCC000446FFF7D4FF02280ED0C31EDBB2012B03
:106CDC0014D82268A36850685B68BDE810400A228B
:106CEC000021184400F0CCBB2268A36852685B6892
:106CFC00D05CA0F174035842584110BD0020FCE751
:106D0C0038B50023C0E9003304460E48C4E9020339
:106D1C00A9B10B78032B06D08BB9136858684B6854
:106D2C00C35C6E2B07D013684D6858688B68284479
:106D3C005B1BA060E36011462046FFF76CFF20460A
:106D4C0038BD00BF8D770B0038B500250B46C0E968
:106D5C000055C0E90255C0E90455044611464BB133
:106D6C001A78012A06D103F11002DB6882604361B4
:106D7C00FFF751FF204638BD10B54369044663B197
:106D8C008068E060013B1030A0602061636113B14A
:106D9C00FFF7F2FEA060012000E0184610BD10B510
:106DAC007D210446FFF749FF01232371204610BDC6
:106DBC0008B50379012B02D0022B04D008BD2C217D
:106DCC00FFF73BFFFAE73A21FAE710B50446FFF765
:106DDC00EFFF20467B21FFF730FF00232371204675
:106DEC0010BD000013B504460191FFF7E1FF2368C5
:106DFC00019ADB68034920469847012320462371FA
:106E0C0002B010BD67770B0013B504460191FFF774
:106E1C00CFFF2368019ADB6803492046984701237A
:106E2C002046237102B010BD28790B002DE9F047E4
:106E3C000D46222190460446FFF7FFFEDFF8A49092
:106E4C00A8442F464745BA463DD017F8016B222E71
:106E5C0006D05C2E04D0304600F0C6F90028F1D1E3
:106E6C002368AAEB05029B682946204698475C21BB
:106E7C002046FFF7E2FE0D2E0AD8072E1CD9A6F1EC
:106E8C000803052B18D8DFE803F00D0F11171315A5
:106E9C00222E01D05C2E0FD131462046FFF7CDFEBD
:106EAC003D46CFE76221F8E77421F6E76E21F4E75F
:106EBC006621F2E77221F0E723683246DB68494627
:106ECC0020469847ECE7BD4205D023687A1B9B68A7
:106EDC0029462046984722212046FFF7AEFEBDE802
:106EEC00F08700BF2B790B0013B50446CDE90021C8
:106EFC00FFF75EFF2046DDE90021FFF797FF022335
:106F0C002046237102B010BD13B50446CDE9002113
:106F1C00FFF74EFF2046DDE90021FFF787FF012335
:106F2C002046237102B010BD7047000038B50446EE
:106F3C0014252A46002100F097F9258040250749A1
:106F4C0025812846258200F031F8044960602846E6
:106F5C0000F02CF8E060204638BD00BF31790B0002
:106F6C0030B50E4D2978BFF35B8F11F0010487B05B
:106F7C0011D12846FDF7ACF868B101A8FFF7D6FF90
:106F8C0001AA21460648FFF7E9FC2846FDF7A5F8BB
:106F9C00044800F023F9024807B030BD40E7032055
:106FAC0044E70320356F0B00FDF77FB8FDF77FB882
:106FBC0008B5FDF7F9FB0000014900F0F9B800BF76
:106FCC004C790B007FB500241023CDE90234036803
:106FDC0015469E6912686B46CDE90044B0479DF892
:106FEC00043003F00603062B03BF009B2B6001202B
:106FFC00204604B070BD0098904214BF01200620BA
:10700C007047000010B5034B0360044600F0CDF848
:10701C00204610BD8C790B0010B50446FFF7F2FF2B
:10702C0020460821FDF745F8204610BD2DE9F0411A
:10703C001F46DDE90834DDF81880984506461546EC
:10704C0007D1079900F0B4F818B165710020BDE8BC
:10705C00F0813946304600F0ABF80028F6D0012319
:10706C00C4F800802571A371F0E738B515461C46AD
:10707C0000F09EF820B10823E360062325602371FD
:10708C0038BD73B505460C4601921E4600F090F8CB
:10709C0050B9032E08D82368019A5B69294620460B
:1070AC0002B0BDE87040184702B070BD10B5034B7C
:1070BC0003600446FFF7A6FF204610BDEC790B00D9
:1070CC0010B50446FFF7F2FF20460C21FCF7F1FF48
:1070DC00204610BDF7B5089F974205460E4614464C
:1070EC000AD0A86802680897156A31462246AC4651
:1070FC0003B0BDE8F04060471946019300F058F822
:10710C00019B0028EDD0062003B0F0BD2DE9F14F16
:10711C000D461946DDE90A4BDDE90CA681461746FA
:10712C00984600F045F890B1002D3460377109DBBA
:10713C0061198A450CBF06210121B171002001B0F3
:10714C00BDE8F08F0235F9D10123B371F6E7544550
:10715C0006D15946484600F02BF808B17771EDE797
:10716C00D9F808000368CDE90CA6CDE90A4BDC6917
:10717C003A4643462946A44601B0BDE8F04F604765
:10718C002DE9F04107460C4615461E46FFF76DFFEC
:10719C0048B9B86803689F692A4633462146BC46FD
:1071AC00BDE8F0416047BDE8F081704700207047B2
:1071BC00814208B50ED0406803782A2B0CD0496860
:1071CC000B782A2B08BF0131FCF722FFB0FA80F0B4
:1071DC00400908BD0120FCE70020FAE70023014626
:1071EC001A46184600F056B9024B1844407800F085
:1071FC0097007047B97A0B0010B5013902449042E0
:10720C0001D1002005E0037811F8014FA34201D011
:10721C00181B10BD0130F2E70A44914200F1FF3314
:10722C0000D1704710B511F8014B03F8014F914292
:10723C00F9D110BD884210B501EB020402D9844289
:10724C00234607D8431EA14208D011F8012B03F89E
:10725C00012FF8E7024401468A4200D110BD13F811
:10726C00014D02F8014DF7E702440346934200D169
:10727C00704703F8011BF9E738B5104B1D68AB6B71
:10728C000446B3B91820FDF76FFA0246A86320B97B
:10729C000B4B0C484221FDF797FA0B490B4BC0E9FD
:1072AC0000130B4B83600B23838100210120C2E967
:1072BC000401AB6B00221C615A6138BDF4E503205C
:1072CC00257A0B003C7A0B000E33CDAB34126DE6F5
:1072DC00ECDE0500C9B2034610F8012B1AB18A4244
:1072EC00F9D118467047002918BF0023F9E710B5EB
:1072FC000446FFF7EFFF18B92046FCF793FE204435
:10730C0010BD034611F8012B03F8012B002AF9D10B
:10731C00704710B57AB103460139841813F8010B84
:10732C0011F8012F904201D1A34201D1801A10BD56
:10733C000028F3D1FAE71046F9E710B502460144EC
:10734C008A42134603D01C780132002CF8D1181A4B
:10735C0010BD38B503460C4669B9BDE83840FFF797
:10736C00B9BF431C054621461846FFF7B3FF00285A
:10737C00F7D1284638BD0025F5E70000012B2DE993
:10738C00F04701D0242B06D9FDF716FA162303601B
:10739C000020BDE8F087DFF8E4C00D462E4615F856
:1073AC00014B14F80C7017F00807F7D12D2C32D1C3
:1073BC002C780127B51C002B5BD0102B09D1302C5D
:1073CC0007D12C7804F0DF04582C4DD16C781023A5
:1073DC00023507F1004808F1FF384FF0000CB8FBFC
:1073EC00F3F9664603FB198AA4F1300EBEF1090FBE
:1073FC0016D87446A34224DDBCF1000F1EDBB14548
:10740C001CD301D1A24519DB06FB03464FF0010C3E
:10741C0015F8014BE8E72B2C04BF2C78B51CCAE7F8
:10742C00A4F1410EBEF1190F01D8373CE2E7A4F1EB
:10743C00610EBEF1190F04D8573CDBE74FF0FF3C4F
:10744C00E6E7BCF1000F05DA22230360464642B999
:10745C0030469EE707B17642002AF9D0BCF1000F06
:10746C0000D0691E1160F3E73024002BB1D1082342
:10747C00AFE7302CA5D00A23ABE700BFBA7A0B00DC
:10748C0013460A46014602480068FFF777BF00BF63
:10749C00F4E503202DE9F843DFF8B8800646D8F868
:1074AC0000001F460D46914600F056F8254B1C680F
:1074BC0034B9254C1C60254B13B11B68C4F88830BB
:1074CC0063681F2B07DDD8F8000000F047F84FF079
:1074DC00FF30BDE8F8834EB3D4F8880088B91C4B54
:1074EC0023B9D8F8000000F038F8F0E74FF48470B6
:1074FC00FDF73AF90028F4D00023C0E94033C4F872
:10750C008800636840F8239001229A4000EB8301C5
:10751C00D0F800311343C0F80031022EC1F880704E
:10752C0002BFD0F804311343C0F804316368D8F8B3
:10753C0000005A1C0233626044F8235000F00EF82D
:10754C000020C6E7E8E703205CE70320000000000A
:10755C0075470B0058E603207047704770470000D2
:10756C00000000000000FB349B5F800000800010D6
:10757C00000000000000000041400B007D400B00AB
:10758C00A5400B00A9400B000000000043616C6C8F
:10759C00206F6E2070757265207669727475616CDF
:1075AC0000646973636F6E6E656374656400616615
:1075BC006537616363352D333361392D3437386664
:1075CC002D626265312D383934346161303865385B
:1075DC003834000000000000000000000000000033
:1075EC0000000000C5400B00ED400B000000000047
:1075FC0000000000F1400B0025410B0045620B0020
:10760C00E9630B00000000000000000053480B0071
:10761C0049480B003F480B0035480B0029480B002C
:10762C001D480B00616A0B00696A0B0011480B00C6
:10763C0009480B00FF470B00F5470B00996A0B003C
:10764C00417373657274696F6E4661696C757265AE
:10765C002066616C736500776972696E672E626C67
:10766C006500537461727420646973636F7665721C
:10767C00696E672073657276696365732E0041735A
:10768C0073657274696F6E4661696C75726520689A
:10769C00616C5F626C655F737461636B5F696E696B
:1076AC0074286E756C6C70747229203D3D20535992
:1076BC005354454D5F4552524F525F4E4F4E45000D
:1076CC004661696C656420746F20617070656E64CE
:1076DC0020706565722043656E7472616C20646500
:1076EC00766963652E00436F6E6E65637465640026
:1076FC00446973636F6E6E656374656400000000AB
:10770C000000000000000000AF490B00D1490B0045
:10771C00A34F0B00DF490B00B1490B000000000028
:10772C0000000000626175640053657269616C0051
:10773C0053657269616C31004A534F4E53747265D4
:10774C00616D4C6F6748616E646C6572006170703E
:10775C0000253031307520005D20002564002C2080
:10776C000028293A2000205B00636F6465203D20CF
:10777C000025690064657461696C73203D20000DFF
:10778C000A006D0066006C6E00666E007400636F1C
:10779C0064650064657461696C00000000000000A1
:1077AC00000000003F560B0065560B0023560B00E3
:1077BC00B36B0B000000000000000000ED5A0B0042
:1077CC00055B0B0045620B00E9630B000000000039
:1077DC0000000000195B0B002D5B0B0021640B00FB
:1077EC002B560B0000000000000000003D560B0063
:1077FC0073560B00A9610B002D560B000000000006
:10780C00000000003B560B0081560B00555A0B0034
:10781C00A3560B0025592D256D2D25645425483A6A
:10782C00254D3A2553257A0061736374696D6500A3
:10783C000000000000000000FD660B00ED660B0070
:10784C00EF660B000000000000000000E3670B0077
:10785C004B680B0021680B0091550B0013680B0053
:10786C00E5670B00F5670B0045680B0005680B001E
:10787C00DD670B000000000000000000ED680B004D
:10788C0059690B0031690B0091550B0001690B0014
:10789C001D690B000F690B002B690B00EF680B00C7
:1078AC00F3680B000000000000000000036A0B00EE
:1078BC00F9690B00EF690B00A5690B00E3690B007C
:1078CC00D7690B00616A0B00696A0B00CB690B006E
:1078DC00C3690B00B9690B00AF690B00996A0B0007
:1078EC000000000000000000216A0B002B6A0B0056
:1078FC00356A0B003F6A0B00496A0B00556A0B0096
:10790C00616A0B00696A0B00716A0B007D6A0B00DF
:10791C00856A0B008F6A0B00996A0B002575007540
:10792C00253034780000537431395F53705F6D61CA
:10793C006B655F7368617265645F746167000000FA
:10794C008C790B0032790B00EC790B0060790B0011
:10795C00107A0B004E31305F5F6378786162697624
:10796C003131375F5F636C6173735F747970655F1E
:10797C00696E666F450000000000000054790B0032
:10798C0011700B0025700B00B9710B00B9710B0055
:10799C008F700B00D16F0B0077700B0039700B00E0
:1079AC0003700B00EC790B00BC790B0054790B00C5
:1079BC004E31305F5F637878616269763132305F67
:1079CC005F73695F636C6173735F747970655F6912
:1079DC006E666F450000000000000000B0790B00DF
:1079EC00B9700B00CD700B00B9710B00B9710B00A5
:1079FC008F700B00D16F0B008D710B0019710B0088
:107A0C00E1700B008C790B00187A0B0053743974ED
:107A1C007970655F696E666F005245454E54206DF6
:107A2C00616C6C6F6320737563636565646564007A
:107A3C002F6D6E742F776F726B73706163652F7718
:107A4C006F726B73706163652F4743432D31302D1B
:107A5C00706970656C696E652F6A656E6B696E73A3
:107A6C002D4743432D31302D706970656C696E65FF
:107A7C002D34385F32303230313132345F31363080
:107A8C00363138303634312F7372632F6E65776C24
:107A9C0069622F6E65776C69622F6C6962632F73F4
:107AAC0074646C69622F72616E642E630000202016
:107ABC002020202020202028282828282020202092
:107ACC002020202020202020202020202020881052
:107ADC0010101010101010101010101010100404B2
:107AEC0004040404040404041010101010101041B9
:107AFC00414141414101010101010101010101012A
:107B0C0001010101010101010110101010101042BE
:107B1C0042424242420202020202020202020202F9
:107B2C0002020202020202020210101010200000D7
:107B3C000000000000000000000000000000000039
:107B4C000000000000000000000000000000000029
:107B5C000000000000000000000000000000000019
:107B6C000000000000000000000000000000000009
:107B7C0000000000000000000000000000000000F9
:107B8C0000000000000000000000000000000000E9
:107B9C0000000000000000000000000000000000D9
:107BAC0000000000000000000000000000000000C9
:107BBC0019430B005D480B0071480B0081550B00FD
:107BCC0035620B0095650B00A9650B000D6A0B0067
:047BDC00716B0B00BE
:107BE000040000001400000003000000474E550090
:107BF0008DEBE635C02BBAAB168FE1D9597AC6AA00
:047C00003B0A90614A
:107C0400F8770B0010780B0034780B00F8E50320AC
:107C14000000000000000000000000000000000060
:107C24000000000000000000000000000000000050
:107C34000000000000000000000000000000000040
:107C44000000000000000000000000000000000030
:107C54000000000000000000000000000000000020
:107C64000000000000000000000000000000000010
:047C7400ECE7032016
:047C78000000000008
:107C820000000102030405060708090A0B0C0D0E89
:107C92000F101112131415161718191A1B1C1D1E7A
:047CA2001F20280077
:047CA60078563412C6
:04000003B000401CED
:00000001FF
