:02000002B0004C
:1040000000400B00A6910B00000006000C0005020A
:084010000401B41400000000DB
:04401800E4880B002D
:10401C0010F8012B11F8013B012A28BF9A42F7D066
:10402C00D01A7047034613F8012B002AFBD1181A3B
:10403C000138704709480A49884208B505D0094A31
:10404C00824202D0121A04F097FA0748074A00215C
:10405C00121A04F0B9FA014808BD00BF3CE5032070
:10406C0004910B00B0E50320B0E50320F0E703203A
:10407C0070B5074E074C03F0EFF8A41BA4080025FD
:10408C00AC4200D170BD56F8043B98470135F7E7B8
:10409C00BC900B00E0900B0000F0B6B808B500F037
:1040AC000FF9BDE8084003F08FB800F0ADBF00F089
:1040BC00ABBF00F0B1BF00F0AFBF000008B5034AC2
:1040CC0003490C2000F0E4FEFEE700BFE54A0B00BC
:1040DC00F8880B000078B0FA80F040097047012393
:1040EC000370704770477047704710B51021044635
:1040FC00FFF7E1FF204610BD0A4B10B504460360E4
:10410C0002F0E2F9214602F01AFC03F0C7F903F0C1
:10411C00B9F92046044B40F8043B02F0ABFA2046B8
:10412C0010BD00BF008A0B00E8890B0010B50446D7
:10413C00FFF7E2FF20462421FFF7BDFF204610BD0C
:10414C000EB403B503AB002153F8042B019302F01A
:10415C0004F802B05DF804EB03B0704773B5044685
:10416C0008462279A36832B1A3B90B4902B0BDE865
:10417C00704001F0B7BF094A267B094D0949647BA1
:10418C00012E18BF2946CDE900140749FFF7D8FFC7
:10419C0002B070BD054AEFE71E890B00E68B0B00E1
:1041AC001A890B0016890B0034890B000D890B0042
:1041BC000EB400B58CB00DAA4FF0200C52F8041BB5
:1041CC000392CDE900120023016804AA1E20CDE958
:1041DC0004C300F06DFE0CB05DF804EB03B0704747
:1041EC0008B502490248FFF7E3FF08BD5B8B0B00E3
:1041FC00B8E6032008B502490248FFF7D9FF08BD0D
:10420C0051890B00B8E6032070B594B004A800F0F7
:10421C0068FB502104A800F071FB04A92448254C2C
:10422C0000F0CEFB01F044FB01F05EFB01F040FB23
:10423C002149002201F007FF01F03AFB1F4900223F
:10424C0001F0E2FE07A801F029FD0FCC0AAD0FC565
:10425C000AAD0FCD26680FAC0FC40FA8266001F075
:10426C0007FA04460FA8DCB901F004FA0094ADF883
:10427C000E0002230DF10E02032107A801F003FD2D
:10428C0001F016FB002207A901F0A4FB01F010FBC2
:10429C00142101F030FB079800F0BEFE14B070BD85
:1042AC0001F0EAF900230093024610230721E4E70A
:1042BC00C8E5032074E60320ED410B0001420B001E
:1042CC0030B58FB01948694600F050FB58B3BDF9B2
:1042DC000250BDF90440BDF900100A2202A801F0F9
:1042EC00D4F80A22294606A801F0CFF80A22214662
:1042FC000AA801F0CAF8029A0D490E4800F07DFA9E
:10430C00069A0D490B4800F078FA0A9A0B490948AD
:10431C0000F073FA0AA801F005F806A801F002F8FB
:10432C0002A800F0FFFF0FB030BD00BFC8E50320AE
:10433C005E890B00F0E5032071890B0084890B006A
:10434C0070B5D0E900531426044606FB0356AE4262
:10435C0004D0284600F0E6FF1435F8E7206800F09A
:10436C005BFE204670BD8842F8B504460D461646E5
:10437C0016D9904215D2A2F11406751AA1F11407A0
:10438C002C44B7421CD02CB13146204601F046F8E3
:10439C00337C2374304600F0C5FF143E143CF0E728
:1043AC000ED0B5420CD02CB12946204601F036F87F
:1043BC002B7C2374284600F0B5FF14351434F0E739
:1043CC00F8BD2DE9F0410023C0E9003383604F684C
:1043DC009F4204460E4623DD4FF0140808FB07F0FD
:1043EC0000F012FE0546D8B1D4E9001208FB021207
:1043FC00FFF7B9FF206800F00FFE2560A760D6E933
:10440C00007308FB0378B84508D03946284601F0FC
:10441C001FF83B7C2B7414371435F4E77368636016
:10442C002046BDE8F081000030B5002191B001209C
:10443C0000F066FD3A4B3B4A9A600024C3E9004405
:10444C00032000F04DFD0094374C384B3849394867
:10445C00394D40F25B7200F0C9F80821204600F09B
:10446C0057FA364B23602978BFF35B8F11F00101AB
:10447C000BD128460391FFF72DFE039928B1304844
:10448C0000F046FE2846FFF72AFE2D4B2D4AE3602E
:10449C00A26103232C4A2361226200230122A284FD
:1044AC0023752377CDE90433069302F0F7FF04A9B3
:1044BC00054607A8254CFFF784FF07A90AA8FFF7B4
:1044CC0080FF234B23600AA90DA8FFF77AFF0DAAE2
:1044DC001E21201D02F016FB0DA8FFF731FF0AA8C4
:1044EC00FFF72EFF1B4B2360256207A8FFF728FF61
:1044FC00194B236002F0D2FF4FF4165102F0BEFFAD
:10450C0001F0E2FF214602F0D3F904A8FFF718FFEF
:10451C001249134811B0BDE8304001F01FB900BF7B
:10452C00BCE503200000FFFFC8E50320F5400B00AD
:10453C0097890B00F0E50320B0E50320488A0B00B7
:10454C00B4E50320D4890B008096980050E6032034
:10455C00E8890B00208C0B00008A0B00A6890B004D
:10456C0074E6032091F85C3010B50446016013B179
:10457C00886D00F00DFB204610BD10B5036893F854
:10458C005C20044612B1986D00F00AFB204610BD69
:10459C00F8B51F469DF8243004460D4616462BB13F
:1045AC00012380F85C30583000F0EAFA089B236352
:1045BC000023636306B1A66425B1294604F13800D3
:1045CC0000F051FF069B2365079BE069A4F84C7033
:1045DC00FF2BB8BFFF23A4F8543008B1FFF769FDD7
:1045EC00B4F85400FFF763FDE061F8BD2DE9FF411D
:1045FC0004460025174698460E4603F0D3FA0D499B
:10460C00E56104F1380000F0D8FE9DF82830A5646F
:10461C00CDE90283FF220F23CDE90032204684F836
:10462C005C503B462A463146FFF7B2FF204604B0A9
:10463C00BDE8F081E68B0B002DE9F34115461E46D3
:10464C001A4607460023964602A802F07F0CBEF1DC
:10465C007F0F03F10104034488BF4CF0800CBEF1C2
:10466C007F0F4FEAD212E4B203F804CC1ED8C4F187
:10467C000403C4F10500E954224601A9284405EBC2
:10468C00030803F079FF721C22444146384602F0BD
:10469C00DEFF054600F028FA621C78623244A8B2AC
:1046AC00131A5842584102B0BDE8F0812346CAE7BC
:1046BC000233F0B5054698B20023CE5C9CB256B1DD
:1046CC00B5F854C0844503F1010704D9441C1654B1
:1046DC003B46A0B2F1E799B2411A0A44210A02F80A
:1046EC00021C02F8013CF0BD38B5044603F0D8F8C2
:1046FC00002814BF0125002502D1204603F008FA3A
:10470C00284638BD2DE9F74FDDF83C809DF8345034
:10471C009DF8389004468B4616461F46FFF7E4FF7B
:10472C008246002851D0214601A8FFF71BFFB4F8A0
:10473C005420E069002103F047FF0523E269594644
:10474C002046FFF7B5FF6B1E012B15D8218CE369B2
:10475C00013189B22184090A1954421CE369218C64
:10476C0092B20230995480B2B8F1000F04D0238C6D
:10477C005A1C2284A8F8003000210B188F42E269E1
:10478C009BB20AD9B4F854C09C4506D916F801C09E
:10479C0002F803C0013189B2EFE79DF8301000290F
:1047AC000CBF30213121B9F1000F01D041F00801CB
:1047BC00022D0ED141F00401053B9BB22046FFF7C0
:1047CC003BFF824601A8FFF7D8FE504603B0BDE878
:1047DC00F08F012D08BF41F00201EDE71FB5089CD9
:1047EC000394002402949DF81C4001949DF81840F9
:1047FC000094FFF787FF04B010BD30B587B00446B6
:10480C00104605910492FFF70DFC00250346CDE9F7
:10481C000155DDE9042100952046FFF7DFFF07B0C5
:10482C0030BD704710B528210446FFF744FC2046E4
:10483C0010BD10B5044600F11801C06800F0A0FCD2
:10484C00208A0021BDE8104003F0C6BC10B5044618
:10485C000121008A03F0C0FCE068BDE8104000F0C4
:10486C0075BCF8B51E4603685B690F4614460546D1
:10487C009847012E88BF47F04007E86847F0800151
:10488C0000F0ECFC2644B44206D0E868002100F0AD
:10489C00E5FC04F8010BF6E72B6828469B69984762
:1048AC000120F8BDF8B51E4603685B690F46144637
:1048BC0005469847012E88BF47F04007E8683946FF
:1048CC0000F0CCFC2644B44205D014F8011BE86877
:1048DC0000F0C4FCF7E72B6828469B699847012039
:1048EC00F8BD0022027042708270C2700271427177
:1048FC008271C2710272427282727047002241F060
:10490C0007010170027182704270C271427270476D
:10491C00024AC0E900210022027270472C8A0B0067
:10492C0013B5036801AADC680123A0479DF80400B5
:10493C0002B010BD38B505460A240F212846FFF7F2
:10494C00EFFF33284FF0010004D002F0FBFB013CD9
:10495C00F3D1204638BD10B50446018AC06800F07A
:10496C00E1FB2046BDE81040FFF7E4BFF7B50C466D
:10497C0027210546FFF7D4FF00F00800002814BFDC
:10498C00012600260FD02B686A46DF6828210623F3
:10499C002846B847BDF800302380BDF8023063804C
:1049AC00BDF80430A380304603B0F0BD13B50368E6
:1049BC008DF804201C6901AA0123A04702B010BD88
:1049CC0070B503689B6804460D469847064630B997
:1049DC0002F064FD274901F098FB304670BD2A783F
:1049EC0020212046FFF7E2FF6A7821212046FFF7BD
:1049FC00DDFFAA7822212046FFF7D8FFEA78232191
:104A0C002046FFF7D3FF2A7924212046FFF7CEFF5B
:104A1C006A7925212046FFF7C9FFAB791BB1262106
:104A2C002046FFF77DFFAA7A2E212046FFF7BEFF16
:104A3C00AB785B06D1D5EA7932212046FFF7B6FF79
:104A4C002A7A33212046FFF7B1FF6368002B0ADB7B
:104A5C006A7A227220463021FFF7A8FF31212046C6
:104A6C00FFF75EFFB9E70022227230212046FFF7E4
:104A7C009DFFB2E7108A0B0008B5024B1B689B68C0
:104A8C00019308BD6802030008B5024B1B68DB6884
:104A9C00019308BD6802030008B5024B1B68DB6874
:104AAC00019308BD2C02030008B5024B1B681B695F
:104ABC00019308BD2C02030008B5024B1B685B690F
:104ACC00019308BD6C02030008B5024B1B685B68C0
:104ADC00019308BD1802030008B5024B1B68DB6884
:104AEC00019308BD1802030008B5024B1B685B69F3
:104AFC00019308BD1802030008B5024B1B689B68A4
:104B0C00019308BD7802030008B5024B1B689B6C2F
:104B1C00019308BD7802030008B5024B1B68DB6CDF
:104B2C00019308BD7802030008B5024B1B681B6D8E
:104B3C00019308BD7802030008B5024B1B689B6DFE
:104B4C00019308BD7802030008B5024B1B681B6E6D
:104B5C00019308BD7802030008B5034B1B68D3F81A
:104B6C009830019308BD00007802030008B5034B90
:104B7C001B68D3F8F030019308BD000078020300E5
:104B8C0008B5024B1B681B6B019308BD4802030060
:104B9C0008B5024B1B689B6B019308BD48020300D0
:104BAC0008B5024B1B681B6C019308BD480203003F
:104BBC0008B5024B1B685B6C019308BD48020300EF
:104BCC0008B5024B1B689B6C019308BD480203009F
:104BDC0008B5024B1B68DB6C019308BD480203004F
:104BEC0008B5024B1B685B6D019308BD48020300BE
:104BFC0008B5024B1B685B69019308BD6402030096
:104C0C0008B5024B1B681B6A019308BD64020300C4
:104C1C0008B5024B1B689B6A019308BD6402030034
:104C2C0008B5024B1B689B68019308BD3C0203004E
:104C3C0008B5024B1B68DB68019308BD3C020300FE
:104C4C0008B5024B1B681B69019308BD3C020300AD
:104C5C0008B5024B1B685B69019308BD3C0203005D
:104C6C0008B5024B1B689B69019308BD3C0203000D
:104C7C0008B5024B1B68DB69019308BD3C020300BD
:104C8C0008B5024B1B681B6A019308BD3C0203006C
:104C9C0008B5024B1B689B6A019308BD3C020300DC
:104CAC0008B5024B1B68DB6A019308BD3C0203008C
:104CBC0008B5024B1B681B6C019308BD3C0203003A
:104CCC0008B5024B1B681B6A019308BD2802030040
:104CDC0008B5024B1B685B6A019308BD28020300F0
:104CEC0008B5024B1B689B6A019308BD28020300A0
:104CFC0008B5024B1B68DB6A019308BD2802030050
:104D0C0008B5024B1B681B6B019308BD28020300FE
:104D1C0008B5024B1B685B6B019308BD28020300AE
:104D2C0008B5024B1B681B6C019308BD28020300DD
:104D3C0008B5024B1B689B69019308BD3802030040
:104D4C0008B5024B1B68DB69019308BD38020300F0
:104D5C0008B5024B1B681B6A019308BD380203009F
:104D6C0008B5024B1B689B6A019308BD380203000F
:104D7C0008B5024B1B681B6B019308BD380203007E
:104D8C0008B5024B1B689B6B019308BD38020300EE
:104D9C0008B5024B1B681B68019308BD3002030069
:104DAC0008B5024B1B685B69019308BD3002030018
:104DBC0008B5024B1B68DB69019308BD3002030088
:104DCC0008B5024B1B681B6A019308BD3002030037
:104DDC0008B5024B1B685B6A019308BD30020300E7
:104DEC0008B5024B1B68DB6B019308BD3002030056
:104DFC0008B5024B1B681B6C019308BD3002030005
:104E0C0008B5024B1B685B6C019308BD30020300B4
:104E1C0008B5024B1B681B68019308BD4C020300CC
:104E2C0008B5024B1B685B68019308BD4C0203007C
:104E3C0008B5024B1B689B68019308BD4C0203002C
:104E4C0008B5024B1B681B69019308BD4C0203009B
:104E5C0008B5024B1B685B69019308BD4C0203004B
:104E6C0008B5024B1B689B69019308BD4C020300FB
:104E7C0008B5024B1B68DB69019308BD4C020300AB
:104E8C0008B5024B1B681B6A019308BD4C0203005A
:104E9C0008B5024B1B685B6B019308BD60020300F5
:104EAC0008B5024B1B681B6D019308BD6002030023
:104EBC0008B5024B1B685B6D019308BD60020300D3
:104ECC0008B5024B1B68DB6E019308BD6002030042
:104EDC0008B5024B1B681B6F019308BD60020300F1
:104EEC0008B5024B1B685B68019308BD20020300E8
:104EFC0008B5024B1B685B69019308BD20020300D7
:104F0C0008B5024B1B68DB6A019308BD2002030045
:104F1C0008B5034B1B68D3F88830019308BD00001B
:104F2C002002030008B5034B1B68D3F8943001939F
:104F3C0008BD00002002030008B5024B1B685B682B
:104F4C00019308BD4002030008B5024B1B689B6827
:104F5C00019308BD4002030008B5024B1B68DB68D7
:104F6C00019308BD4002030008B5024B1B681B6986
:104F7C00019308BD4002030008B5024B1B685B6936
:104F8C00019308BD4002030008B5024B1B689B69E6
:104F9C00019308BD4002030008B5024B1B68DB6996
:104FAC00019308BD4002030008B5024B1B681B6A45
:104FBC00019308BD4002030008B5024B1B681B6B34
:104FCC00019308BD4002030008B5024B1B685B6BE4
:104FDC00019308BD4002030008B5024B1B681B6C13
:104FEC00019308BD4002030008B5024B1B685B6CC3
:104FFC00019308BD4002030008B5024B1B68DB6B34
:10500C00019308BD4402030008B5024B1B681B68E2
:10501C00019308BD1C02030008B5024B1B685B68BA
:10502C00019308BD1C02030008B5024B1B689B686A
:10503C00019308BD1C02030008B5024B1B685B6A98
:10504C00019308BD1C02030008B5024B1B68DB6A08
:10505C00019308BD1C02030008B5024B1B68DB6BF7
:10506C00019308BD1C02030008B5024B1B681B6CA6
:10507C00019308BD1C02030008B5024B1B685B6C56
:10508C00019308BD1C020300002240681146FFF783
:10509C008BBF002240681146FFF796BF4068002284
:1050AC00FFF78ABF4068002281F00101FFF774BF4F
:1050BC00002340681A461946FFF766BF0023406874
:1050CC001A461946FFF758BF002240681146FFF7F1
:1050DC004BBF002240681146FFF736BF40680022E4
:1050EC000221FFF739BF002340681A46FFF724BF9F
:1050FC00024B03225A60024A1A60704788E603206A
:10510C006C8A0B000021FFF77BBE0021FFF770BEFD
:10511C0010B5044608462170FFF74AFE0023636071
:10512C00204610BD13B5044600780191FFF7EDFF42
:10513C00019948B920780190FFF72AFE019802B036
:10514C00BDE81040FFF7DEBF02B010BD0078FFF7DE
:10515C00D9BF0000400830B5186000241868884298
:10516C00E5B206D90134082C02D040081860F5E7E6
:10517C000725024B5B5D137030BD00BFA08A0B008E
:10518C002DE9F04306468FB000780C46FFF7BDFFC3
:10519C0000281BDB35781422002109A803F014FA2F
:1051AC000B23002209A92846ADF82430FFF710FE86
:1051BC009DF82D3013B19DF82C5055B10027B946F0
:1051CC00B846012523795DB1C3B100200FB0BDE80D
:1051DC00F083DDF830809DF834909DF83570F1E760
:1051EC00002B35D1A368434508D18DF820908DF85C
:1051FC002170BDF82020A3899A42E6D00023A16833
:10520C008DF80F300A9804AB0DF10F02FFF7A2FFD7
:10521C00217985B989B9A36843450ED38DF82090BF
:10522C008DF82170BDF82020A3899A4205D1049BEA
:10523C00434502D1C9E70029F9D100230193637BCF
:10524C0000939DF80F20237B3078FFF7C9FDBCE756
:10525C00CDE900552B462A460121F5E708B5007823
:10526C00FFF79EFDC0B208BD054B02221A60054B2C
:10527C00054A9A600020C3E90000FFF731BE00BF69
:10528C009CE6032090E603200000FFFF10B50446C7
:10529C00FEF7C8FE013823182046834206D902784F
:1052AC00197800F8011B03F80129F6E710BD70B559
:1052BC000C46911E22291DD8254630B92344302294
:1052CC009D4210D205F8012BFAE7B0FBF2F602FB77
:1052DC001600C1B2092894BF30315731C9B205F854
:1052EC00011B3046E9E7002320462B70FFF7CEFF69
:1052FC00204670BD0020FCE738B5031E0C46154651
:10530C000EDAB3F1004F4FF02D0214BF584218467D
:10531C0001230A702A461944FFF7C9FF204638BDFD
:10532C000123F9E710B504460068FFF775FE204627
:10533C0010BD10B50446006808B1FFF76DFE0023E0
:10534C00C4E90133236010BD38B504460D4600682E
:10535C000131FFF769FE10B1C4E90005012038BD29
:10536C0010B50368044623B143688B4201D3012076
:10537C0010BD2046FFF7E8FF0028F9D0A368002BEA
:10538C00F5D122681370F2E737B50D46114601923C
:10539C000446FFF7E5FF019A28B92046FFF7C9FF3D
:1053AC00204603B030BDA2602946206803F0E4F823
:1053BC002268A3680021D154F2E7002313B5C0E999
:1053CC00003304468360037341B108460191FEF734
:1053DC0029FE019902462046FFF7D6FF204602B06F
:1053EC0010BD38B5054600680C4668B16A688B6814
:1053FC009A4207D3096803F034F9A368AB60002321
:10540C00A36038BDFFF708FE23682B6063686B60F0
:10541C00A368AB600023C4E90033F1E710B50023A7
:10542C00C0E90033044683600373FFF7DAFF2046BC
:10543C0010BD884210B5044605D00B682BB18A68A4
:10544C001946FFF7A1FF204610BDFFF772FFFAE7E0
:10545C0010B500230446C0E9003383600373FFF7E3
:10546C00E8FF204610BD13B5044659B1084601911A
:10547C00FEF7D8FD019902462046FFF785FF20462E
:10548C0002B010BDFFF755FFF9E710B504468AB01E
:10549C000023C4E90033A3602373084601A9FFF776
:1054AC002BFF01A92046FFF7DEFF20460AB010BDF6
:1054BC0070470000064B994210B500F10C0405D062
:1054CC00084602F029FF002808BF0024204610BD22
:1054DC00848B0B0010B530210446FEF7ECFD204602
:1054EC0010BD3021FEF7E7BDF0B50025EC1C8C4259
:1054FC000DD86E1C445D875D974205D12644B142A0
:10550C0005D31D60601CF0BD01342544EEE700207E
:10551C00F9E7034608461B68D3E900211047012A26
:10552C0038B5044602D10B68236003E0022A03D08D
:10553C00032A0DD0002038BD08200D68FEF7B5FDFC
:10554C0003460028F0D095E8030083E80300EBE75E
:10555C0000680028EED00821FEF7ADFDEAE710B593
:10556C008368044613B1032201469847204610BDB8
:10557C0010B54368013B0446436063B903689B68FC
:10558C009847A368013BA3602BB923682046DB68CE
:10559C00BDE81040184710BDA0F13003DAB2092A5B
:1055AC0001D818467047A0F16103052B01D8573874
:1055BC007047A0F14103052B94BF37384FF0FF30F3
:1055CC007047000010B500230370044B04461868A4
:1055DC00FFF7FEFA01232370204610BDA4E603203A
:1055EC0010B5037804461BB1024B1868FFF7F8FAA4
:1055FC00204610BDA4E6032082B003460868496823
:10560C006A4603C26A4603CA18601846596002B05B
:10561C00704708B582798B799A4206D1062202F03E
:10562C009BFFB0FA80F0400908BD0020FCE74FF06A
:10563C00FF33036083800020704708B502460021C9
:10564C0001604160FFF7F3FF9171104608BD000047
:10565C0010B501230361054B024603F1100153F809
:10566C00044B42F8044B8B42F9D110BDD2880B008D
:10567C0000697047808970477047000001232DE94D
:10568C00F3410361344B0C460646024603F110010C
:10569C0053F8040B42F8040B8B42F9D144B3242188
:1056AC00204602F0FAFF04284FF0000523D1ADF894
:1056BC00045001AFA51C063415F8020CFFF76CFF63
:1056CC00B0F1000812DB15F8010CFFF765FF00289C
:1056DC000CDB023540EA0810A54207F8010BEBD1B0
:1056EC009DF8053033739DF80430737300233361D8
:1056FC0002B0BDE8F0814FF010082421204602F0E2
:10570C00CCFFA84207D842460021304602B0BDE883
:10571C00F04102F059BFB8F1000FE9D0605DFFF71E
:10572C003BFF030615D4000108F1FF38C7B206F899
:10573C0008702421204602F0B0FF0135A84208D998
:10574C00605DFFF729FF40B20028A4BF384306F87C
:10575C0008000135D1E700BFD2880B0013B5044611
:10576C000191FFF775FF20460199FFF787FF20464F
:10577C0002B010BD10B5D0E9063203EBC202934261
:10578C00184606D0046824888C4203F10803F6D12D
:10579C0010BD0020FCE7000070B500250560064632
:1057AC003020FEF782FC044688B10123C0E90133A6
:1057BC00094B03604FF6FF7383810E30FFF73DFFFB
:1057CC00C4E90655C4E90855C4E90A55A5757460C1
:1057DC000C343460304670BD708B0B0037B50D4601
:1057EC00044601A8FFF7EEFE2A68D2F802302360C7
:1057FC00D2F80630636001A8FFF7F2FE204603B032
:10580C0030BD30B5054687B00C4601A8FFF7DAFE6F
:10581C002A68236812881B889A420DD1294602A84F
:10582C00FFF7DCFF214604A8FFF7D8FF04A902A864
:10583C00FFF7EFFE044600B9002401A8FFF7D0FEE5
:10584C00204607B030BD000010B504466420FEF7BA
:10585C002CFC68B10023C0E90033C0E90233C0E975
:10586C000433C0E906330362C362C363C364C36514
:10587C00206020B90A4A0B490A20FFF709FB0020D7
:10588C00FFF73AF920B1064A07490A20FFF700FB57
:10589C00216806480022FFF769F9204610BD00BFB9
:1058AC00E54A0B00A88A0B00E68A0B00D95D0B00B9
:1058BC0010B50A4C2378BFF35B8FDB070CD4204662
:1058CC00FEF708FC40B10648FFF7BEFF2046FEF786
:1058DC0006FC044802F032FE014810BDA0E603208D
:1058EC00A8E60320C95A0B0008B50020FFF704F9FD
:1058FC0000EAE07008BD30B585B000240C23ADF88B
:10590C0006300D460323214601A8CDE90244ADF82B
:10591C000430FFF701F9002805DB214601A8ADF89A
:10592C000850FFF7F1F805B030BD19B90A46084622
:10593C00FFF7FAB8D1E900010022F9E770B5D0E918
:10594C000053044605EB0316AE4204D02846FFF77D
:10595C00E9FC1035F8E72068FFF75EFB204670BDC8
:10596C0038B5141E4368054602DB62189A4200DD06
:10597C005C1A2A68501801191A44521A02F00AFECD
:10598C006A68121B6A6038BD37B50A4604460D4674
:10599C0001ABD0E90001FFF7A7FD024638B1019930
:1059AC002046FFF7DDFF29462046FFF7EDFF03B049
:1059BC0030BD10B50C4629B90A460846BDE8104062
:1059CC00FFF7BAB801212046FFF7DEFFD4E900014A
:1059DC000022F3E738B504461546FFF7A6FF00286A
:1059EC000ADB29462046FFF7E4FF002804DBBDE86C
:1059FC0038400020FFF7A8B838BD000038B50023A8
:105A0C000446836008200D46FEF74FFB18B12B6847
:105A1C0003606B684360034BE360034B2060A3603F
:105A2C00204638BD1F550B002B550B000B6803602F
:105A3C0013B15A6801325A60704710B551F8043BE3
:105A4C00044640F8043BFFF7F1FF204610BD10B5AB
:105A5C000446006808B1FFF78BFD204610BD70B5F9
:105A6C00D0E90053044605EBC306AE4204D0281D12
:105A7C00FFF7EDFF0835F8E72068FFF7CDFA204671
:105A8C0070BD70B5D0E90053044605EBC306AE42B9
:105A9C0004D0281DFFF7DBFF0835F8E72068FFF777
:105AAC00BBFA204670BD10B504462430FFF7E9FF61
:105ABC0004F11800FFF7D3FF10BD000070B5174BB1
:105ACC001C6854B304F15400FFF749FD04F1440081
:105ADC00FFF745FD04F13400FFF741FD04F124000C
:105AEC00FFF73DFDD4E9065305EBC306AE4204D0E7
:105AFC00281DFFF7ACFF0835F8E7A069FFF78CFA13
:105B0C0004F10C00FFF7BDFF2046FFF7A8FF20466D
:105B1C006421BDE87040FEF7CEBA70BDA8E6032044
:105B2C00826810B50AB902F0F3FBBDE81040C368F7
:105B3C00184738B50D1E0446006803DDFFF774FAEC
:105B4C0018B938BDFFF768FA00202060A560012065
:105B5C00F7E708B583688B4202DAFFF7EAFF08BD66
:105B6C000120FCE72DE9F0410F4641681D46194420
:105B7C00836899420446904612DC266862683E446B
:105B8C00D21B3146701902F005FD2A4641463046BB
:105B9C0002F0F2FC63682B4463600120BDE8F081E5
:105BAC00FFF7C7FF0028E8D1F8E7F8B50D46D0E9B4
:105BBC0001139942044616460BDA27686268791974
:105BCC00521B481C02F0E6FC7E556368013363608F
:105BDC00F8BD0131FFF7ADFF0028EED1F8E70A461A
:105BEC004168FFF7E2BF2DE9F74304461D460F4617
:105BFC0001AB90460A46D0E900019DF82890FFF7CA
:105C0C0073FCAE1C63680246B9F1000F26D128B3B1
:105C1C0033441B1AFF2B09D801992046FFF7A0FE2D
:105C2C00616820463144FFF794FF18B9606803B0EF
:105C3C00BDE8F0836A1C0199D2B22046FFF7B5FF8C
:105C4C0001993A4601312046FFF7AFFF01992B46E7
:105C5C00424602312046FFF785FFE7E7F118FF299E
:105C6C00E4D82046FFF775FF0028DFD0691CC9B2C5
:105C7C002046FFF7B4FF39462046FFF7B0FF6168B6
:105C8C002B464246E6E730B49DF808501AB102950F
:105C9C0030BCFFF7A8BF406830BC70471FB500236D
:105CAC00C0E9003383600622009301238DF80F2096
:105CBC0019460DF10F020446FFF7E5FF204604B02C
:105CCC0010BD8842F8B504460D46164614D99042CC
:105CDC0013D2A2F10806751AA1F108072C44B74299
:105CEC0018D01CB131462046FFF7A7FE301DFFF738
:105CFC00AEFE083E083CF2E70CD0B5420AD01CB10F
:105D0C0029462046FFF799FE281DFFF7A0FE08350F
:105D1C000834F2E7F8BDF7B5044646686846FFF765
:105D2C008CFED4E901739F4212DB0137002F29DD71
:105D3C00F800FFF769F90546F0B1D4E9001201EB60
:105D4C00C202FFF7BEFF2068FFF766F92560A76067
:105D5C002368626803EBC60603EBC202314606F108
:105D6C000800FFF7AEFF1EB169463046FFF765FE2F
:105D7C00636801336360012501A8FFF768FE2846BC
:105D8C0003B0F0BD0025DEE7F8B5D0E900430546C9
:105D9C000F4604EBC306A64205D039462046FFF752
:105DAC0030FD08B114B9F8BD0834F4E7201DFFF735
:105DBC004EFED5E9003204F1080103EBC202204685
:105DCC00FFF77FFF6B68013B6B60ECE72DE9F0415F
:105DDC0005468EB003A80C46FFF7F4FB2E68F31EA5
:105DEC000D2B3CD8DFE813F00E0057003B00D3001E
:105DFC003B003B003B003B003B009D009D009D0099
:105E0C009D009D0004A8FFF7C7FC049BAA891A807B
:105E1C006968049808310230FFF7EEFB04A906A864
:105E2C00FFF70BFE06A904F11800FFF774FF0546F7
:105E3C0007A8FFF70CFEC5B92023CDE906355E4B4C
:105E4C005E49009306AA2B460120FFF729F8049B14
:105E5C0029461888FEF780FE05A8FFF7F8FD03A871
:105E6C00FFF7BEFB0EB0BDE8F081E36A23B104A9D5
:105E7C0004F12400FFF754FE05A8FFF7E8FD2021EC
:105E8C000023CDE906134E4A00924C4906AA012084
:105E9C00FFF706F8E3E7A9892046FFF76BFC0646F7
:105EAC000028DCD00568D5E906324FF6FF71298051
:105EBC0003EBC2029A4203D053F8080B4180F9E776
:105ECC00D5E9037307EBC308B84504D0381DFFF7B9
:105EDC00BEFD0837F8E700232B61D5E9067307EB05
:105EEC00C308B84504D0381DFFF7B1FD0837F8E7F3
:105EFC000023EB61AB72E36B23B1314604F1340048
:105F0C00FFF70EFE33684FF6FF721A80314604F12C
:105F1C001800FFF739FF20220023CDE90623294A78
:105F2C00B2E7A9892046FFF725FC002897D0E36C3F
:105F3C00002B94D000230D2EADF8163001D0102E6E
:105F4C0017D1002369681A4606258DF8153004917F
:105F5C008DF814200690DDE9040109AB8DF81C6066
:105F6C00089583E80300236D06A904F144009847C3
:105F7C0075E70F2E01BF2B7A696803F00102082523
:105F8C000FBFC3F340031A4619461D46DDE7A98926
:105F9C002046FFF7EFFB014600283FF460AFE36DAE
:105FAC00002B3FF45CAF6B68069306AA236E04F1DA
:105FBC005400984753E700BF288B0B00BF8A0B0097
:105FCC004E8B0B00588B0B0013B50B460246D0E9D9
:105FDC0000016C4684E8030093E8030082E80300A8
:105FEC0094E8030083E8030002B010BD38B5054601
:105FFC000C46FFF7E9FFAB68A268AA60A360EB68E8
:10600C00E268EA60E36038BD10B504688AB03434E5
:10601C00B9B1CDE9001202A86946FFF7EFFC0023E5
:10602C0006A902A80893FFF7E1FF214606A8FFF78F
:10603C00DDFF06A8FFF793FA02A8FFF790FA0AB063
:10604C0010BD0491EBE710B504688AB02434B9B1E3
:10605C00CDE9001202A86946FFF7D0FC002306A97F
:10606C0002A80893FFF7C2FF214606A8FFF7BEFF60
:10607C0006A8FFF774FA02A8FFF771FA0AB010BD70
:10608C000491EBE7024800230360FEF791BD00BFCB
:10609C00A4E60320F8B506460D468F180024BD4231
:1060AC000CD0336815F8011B9B6830469847031ECB
:1060BC0001DB1C44F3E7002C08BF1C462046F8BD4E
:1060CC0013B50446084659B10191FDF7ABFF23689F
:1060DC000199DB680246204602B0BDE81040184723
:1060EC0002B010BD08B5FFF7EBFF08BD03689B6855
:1060FC00184738B50D210546FFF7F8FF0A2104466D
:10610C002846FFF7F3FF204438BD38B50546FFF7A6
:10611C00D7FF04462846FFF7ECFF204438BD30B5C6
:10612C008BB00023012A8DF8243098BF0A2209ACC9
:10613C000D46B1FBF2F101FB125303F0FF03092BE7
:10614C0094BF30333733DBB2AA4204F8013DEFD9A8
:10615C002146FFF7B5FF0BB030BD2DE9F04186B0FD
:10616C0000AF05460E46381D142114463B60FEF761
:10617C0063FF13280ED8391D2846FFF7A1FF0446EC
:10618C001EB12846FFF7B5FF044420461837BD461C
:10619C00BDE8F08100F1080323F00703E846ADEBFE
:1061AC00030D2246411C3B686846FEF745FF6946D5
:1061BC002846FFF785FF0446C546E1E7806803687B
:1061CC00DB6818477047084611B10B685B681847C5
:1061DC007047704770477047704738B504460D4696
:1061EC0000682E2102F033FA2368C31A2B6023B106
:1061FC00037803B1013023682060184638BD10B510
:10620C000C210446FDF757FF204610BD10B50421A4
:10621C000446FDF750FF204610BD10B5042104467E
:10622C00FDF749FF204610BDFEF7D2BC08B5FDF7BF
:10623C00EFFEB0FA80F0400908BD704710B50C466F
:10624C0001F02CF9844210D001F0FAFF844205D100
:10625C0001F0F6FFBDE8104001F09FB92CB12368A6
:10626C0020465B68BDE81040184710BD0B68036002
:10627C004B68436013B15A6801325A60704713B5CA
:10628C00044608460191FDF7CDFE019902462046D1
:10629C0002B0BDE8104001F051BF13B504460846EA
:1062AC000191FDF7BFFE23680199DB680246204689
:1062BC0002B0BDE81040184707B503688DF8071009
:1062CC00DB6801220DF10701984703B05DF804FB70
:1062DC000A6802604A6842600022C0E9022210B5D6
:1062EC0002618C688460CC68C4600C698A60CA6086
:1062FC0004610A6110BD00002DE9F74FD0E900845C
:10630C004FF0140A00930AFB04F4184BA410174620
:10631C005C434546002C21DD66100AFB06F005EBBC
:10632C0000093A46B9F804B0285801915F4528BFD6
:10633C005A4602F09EF9002801994FF001030BD147
:10634C005F4503D1009A13703446E3E7FCD9A61BD2
:10635C0009F11405013EF7E7F9DBF5E7A5EB0805B4
:10636C000248AD10684303B0BDE8F08FCDCCCCCC67
:10637C007FB50369057E019103B3F9B1002600F1E5
:10638C000C04039603A901A8FFF727FF0146A8B147
:10639C000DF10B03039A8DF80B602046FFF7ACFF51
:1063AC009DF80B3053B12368142404FB00340834DB
:1063BC0034F9023C002BA8BFDDB2E3E7284604B059
:1063CC0070BD0EB4F0B58CB000AF07F144050446B7
:1063DC0055F8042B7A602B46202107F11000FD6044
:1063EC00FEF72AFE1F287A681AD900F1080323F059
:1063FC0007036E46ADEB030D411C2B466846FD6052
:10640C00FEF71AFE021E04DD23686946DB6820468F
:10641C009847B5463037BD46BDE8F04003B07047ED
:10642C000028F7D023680246DB6807F110012046EC
:10643C009847EFE710B5094C2378BFF35B8FDB0768
:10644C0009D42046FDF746FE28B12046FDF747FE4D
:10645C00034802F073F8034810BD00BFB0E60320F8
:10646C00DF610B003CE5032010B5094C2378BFF32A
:10647C005B8FDB0709D42046FDF72CFE28B12046A4
:10648C00FDF72DFE034802F059F8034810BD00BF7C
:10649C00B4E6032047620B0040E5032038B5002525
:1064AC000446C0E90055C0E904558560856140F893
:1064BC00245FFEF77DFBFFF7BDFFE061FFF7D4FF24
:1064CC0025732062204638BD10B50A4C2378BFF3E3
:1064DC005B8FDB070CD42046FDF7FCFD40B1064872
:1064EC00FFF7DCFF2046FDF7FAFD044802F026F822
:1064FC00014810BDACE60320BCE60320296A0B0062
:10650C00024A034903480023FEF7E2BC0D680B0066
:10651C0099670B0019670B0000231A461946184699
:10652C00FEF7D6BC37B58D6804466846FFF79EFE6D
:10653C006A462946204601F021FD01A8FFF787FA9B
:10654C00204603B030BD37B5CD6804466846FFF72A
:10655C008DFE6A462946204601F0ECFC01A8FFF7A7
:10656C0076FA204603B030BD37B50D69044668464F
:10657C00FFF77CFE6A462946204601F084FC01A800
:10658C00FFF765FA204603B030BD000070B58AB045
:10659C000D46014604A8FFF7C5FF144E04A801F0F0
:1065AC0005FDE8B104A96846FFF7CDFF0298314616
:1065BC00FFF73CFE044610B12C1E18BF012401A8A5
:1065CC00FFF745FA002CE9D004A96846FFF7CCFF89
:1065DC00684601F08EFC286001A8FFF738FADDE769
:1065EC0005A8FFF734FA0AB070BD00BF8C8B0B0006
:1065FC0037B50C46204613491546FDF709FD50B931
:10660C0000F04CFF4FF4165100F038FF03B0BDE81A
:10661C00304000F043BF0C492046FDF7F9FC78B937
:10662C004FF4165301A928460193FFF7AFFF01F071
:10663C0007FE019900F0AEFF01F002FE03B030BD81
:10664C000020FBE7918B0B00988B0B0070B5D0E909
:10665C0000531426044606FB0356AE4205D005F142
:10666C000800FFF7F3FF1435F7E72068FEF7D4FCBA
:10667C00204670BD10B504460C30FFF7E7FF2046EE
:10668C00FFF75CF9204610BD10B5044B044640F8EA
:10669C00043BFFF7EFFF204610BD00BFE8890B005D
:1066AC0010B50446FFF7F0FF20462421FDF703FD4B
:1066BC00204610BD10B5034B03600446FFF7E4FF02
:1066CC00204610BD388C0B0010B50446FFF7F2FFC6
:1066DC0020462421FDF7EFFC204610BD0022C0E926
:1066EC00002210B582600C6804604C6844608C68B1
:1066FC000A604A6084608A6010BD10B50368044665
:10670C001868FEF76DFA204610BD00002DE9F04F19
:10671C0087B0804603931C4B5B68C3F30803894620
:10672C0016466BB9FFF7D0FE044600F12403406A0D
:10673C000593FFF779FD237B2BB105A8FFF7DDFF50
:10674C0007B0BDE8F08F01232373D4E900535FFA3F
:10675C0089F905EB830AAA4512D055F8047B31461A
:10676C00381DFFF705FE8145F5D33B68039A00926F
:10677C00D3F808B04A46334641463846D847EAE78C
:10678C0000232373D9E700BF00ED00E02DE9F74F9C
:10679C009B461A4B5B68C3F3080380468946164632
:1067AC006BB9FFF791FE044600F12403406A019394
:1067BC00FFF73AFD237B2BB101A8FFF79EFF03B037
:1067CC00BDE8F08F01232373D4E90053F6B205EB37
:1067DC00830A55450ED055F8047B5946381DFFF7F2
:1067EC00C7FD8642F5D33B684A46DB6841463846CE
:1067FC009847EEE700232373DEE700BF00ED00E0CF
:10680C002DE9F341164B5B68C3F3080305460F46AD
:10681C001BBBFFF759FE00F124030446406A0193A9
:10682C00FFF702FDD4E90063462406EB8308B0456C
:10683C0009D101A8FFF761FFA542B4BF00200120D8
:10684C0002B0BDE8F08156F8040B39460430FFF76E
:10685C008FFD8442A8BF0446E9E70020F0E700BFA3
:10686C0000ED00E0F8B5D0E901539D4204460E4618
:10687C000DDB6F1C002F006804DDB900FEF7D4FBA4
:10688C0018B9F8BDFEF7C8FB00202060A760276888
:10689C00626807EB85019200A2EB8502081D01F0EE
:1068AC0079FE47F825606368013363600120E8E7EF
:1068BC0037B500F124030446406A01930D46FFF7F7
:1068CC00B3FCD4E9003203EB8202934219460BD09D
:1068DC000968A94203F10403F7D101A8FFF70DFFE2
:1068EC000025284603B030BD29462046FFF7BAFFE5
:1068FC0005460028F1D06368012B01D1FFF700FE9B
:10690C0001A8FFF7FAFEECE770B50446D0E90002E7
:10691C000B4600EB820282420FD001461D6851F8F3
:10692C00046BAE4207D1521A01F034FE6368013B8E
:10693C006360012070BD0846EDE70020FAE71FB543
:10694C0000F124030446406A01910393FFF76CFCA9
:10695C0001A92046FFF7D8FF18B163680BB9FFF700
:10696C00DBFD03A8FFF7C9FE04B010BD70B5D0E97C
:10697C0004561823044603FB0656AE4215D005F107
:10698C0010012046FFF7C0FF63680BB9FFF7C4FD89
:10699C00E06929690368DB689847696919B1206A5D
:1069AC000368DB6898471835E7E7D4E904531826E1
:1069BC0006FB0356AE4204D02846FEF7B3FC18354E
:1069CC00F8E70023636170BD73B50446FFF7A4FDBF
:1069DC0004F12403606A0193FFF726FC2046FFF7BD
:1069EC00C5FF01A8FFF789FE606A08B1FEF7E8F859
:1069FC00D4E90453182606FB0356AE4204D02846AD
:106A0C00FEF790FC1835F8E72069FEF705FB2068C7
:106A1C00FEF702FB204602B070BD00000148FFF7F4
:106A2C00D3BF00BFBCE603208842F8B504460D4630
:106A3C00164615D9904214D2A2F11406751AA1F17A
:106A4C0014072C44B7421AD01CB131462046FFF72C
:106A5C003FFC06F10800FFF7F9FD143E143CF1E78A
:106A6C000DD0B5420BD01CB129462046FFF730FCA7
:106A7C0005F10800FFF7EAFD14351434F1E7F8BD11
:106A8C008842F8B504460D46164614D9904213D2E6
:106A9C00A2F11006751AA1F110072C44B74218D0B8
:106AAC001CB131462046FEF7B9FC3046FEF73AFCE5
:106ABC00103E103CF2E70CD0B5420AD01CB129466E
:106ACC002046FEF7ABFC2846FEF72CFC10351034A4
:106ADC00F2E7F8BD70B50E1E054611DD3001FEF76C
:106AEC0093FA044658B1D5E9001201EB0212FFF7F4
:106AFC00C7FF2868FEF790FA2C60AE60012070BDCD
:106B0C000024F6E72DE9F04F904695B00023039151
:106B1C00D8F804100A9346229942C0E90033C0E920
:106B2C000233C0E90433CDE908330446027623DC92
:106B3C00D8E90057142303FB0757AF423BD0294633
:106B4C000BA8FEF76BFC0BA90FA8099EFEF766FCC1
:106B5C00DDE9091399421BDA089B099A03EB061627
:106B6C0003EB0212314606F11000FFF789FFEEB974
:106B7C00099B0133099311E008A8FFF7ABFF00282C
:106B8C00D6D108A8FEF7DAFE204615B0BDE8F08F86
:106B9C00013108A8FFF79EFF0028DDD10FA8FEF7F2
:106BAC00C1FB0BA8FEF7BEFB1435C6E70FA9304698
:106BBC00FEF734FCDCE70026CDE90B660D964FF0B2
:106BCC001409DDE908239E427CDA3301D35806937D
:106BDC000BB90136F5E70023079309FB06F3029383
:106BEC000BAD07A906A8FFF7F8FA82460028F0D0EB
:106BFC004FF000038DF817300146079A0DF117037B
:106C0C002846FFF779FB9DF817700190002F4AD1A9
:106C1C00BDF81C30ADF84030CDE911774FF6FF735D
:106C2C00CDF83CA0ADF842301397D5E90132934230
:106C3C0017DB03F1010ABAF1000F30DD09FB0AF092
:106C4C00FEF7E2F9834660B3D5E9001209FB0212A4
:106C5C00FFF7EAFE2868FEF7DFF9C5F800B0C5F8C3
:106C6C0008A02B68019A09FB023A6A68514609FB95
:106C7C0002320AF11400FFF7D7FEBAF1000F03D06D
:106C8C000FA95046FFF724FB6B6801336B6011A80A
:106C9C00FFF7DCFC3FB10BA8FFF7D8FC71E7BB4654
:106CAC00D8E70127F3E7019B2D6809FB0355069BE9
:106CBC001B782BB9D8F80030029A13441B7CEB805C
:106CCC0008358EE72168226062686360A3680992C8
:106CDC000A9A0A93E368A2600B9A0B932369E26009
:106CEC000C9A0C93636922610D9A0D93039B089186
:106CFC0062612376CFE70000F0B5044687B00D46FD
:106D0C002646194668461746FDF75BFB0B4B46F8C3
:106D1C00043B694603A8FDF754FB03AA39463046E9
:106D2C00FFF7F0FE03A8FDF70BFB6846FDF708FB29
:106D3C00034B23602046256207B0F0BDE8890B00A9
:106D4C00208C0B00F0B50F4685B01D490A9C3846C7
:106D5C0016461D46FDF75CF9C0B9A4B1294601A839
:106D6C00FFF7BCFC1749242001F0CEFA054630B1E0
:106D7C0001AB32462146FFF7BFFF134B2B6001A836
:106D8C00FDF7DEFA2C46204605B0F0BD0F4938461B
:106D9C00FDF73EF990B9002CF5D0294601A8FFF774
:106DAC009DFC0849242001F0AFFA05460028E6D0E6
:106DBC0001AB32462146FFF79FFFE0E70024E2E7F4
:106DCC00A08B0B00318E0B00388C0B00A48B0B00AE
:106DDC00014B024A1A607047B8E60320B58B0B00D2
:106DEC002DE9F047089DD0F8209004460E46174632
:106DFC00984600F053FB81454CD02B79190704D5EC
:106E0C006A6954492046FFF7DCFAB8F1000F0DD03F
:106E1C005B212046FFF750FA41462046FFF73DFA2A
:106E2C0023684D49DB680222204698472B79DA0704
:106E3C0023D5D5F808802F21404601F03AFC08B143
:106E4C0000F1010841462046FFF727FA2B799B07F2
:106E5C0008D53A212046FFF72FFAEA683F49204629
:106E6C00FFF7AFFA2A79236812F0040FDB6814BF1E
:106E7C003B493C490222204698472B7958071DD59F
:106E8C0029690B461A4613F8010B60B1202808D16A
:106E9C001946F7E7344800F00EFF0028ADD0BDE8E6
:106EAC00F0872828EED12368521ADB6820469847D1
:106EBC0023682E49DB680422204698470021384677
:106ECC00FDF7FEFF01462046FFF7E7F92368254949
:106EDC00DB680222204698471EB131462046FFF758
:106EEC00DCF92B7913F0300F2CD023682049DB68A8
:106EFC000222204698472B79D9060AD523681D49CA
:106F0C00DB68072220469847AA691B492046FFF7F1
:106F1C0058FA2B799A0611D5DB0605D5236810494A
:106F2C00DB6802222046984723681449DB68204618
:106F3C000A229847E9692046FFF7AFF95D21204600
:106F4C00FFF7BAF923680E49DB6820460222BDE838
:106F5C00F0471847B98B0B00C08B0B00448D0B000E
:106F6C00C38B0B00C88B0B0020E70320C68B0B00D8
:106F7C00CB8B0B00CE8B0B00D68B0B00D98B0B0065
:106F8C00E48B0B002DE9F0410446076A0D461646CA
:106F9C0000F084FA874207D0206A036832462946FB
:106FAC00DB68BDE8F0411847034800F084FE002878
:106FBC00F2D0BDE8F08100BF20E703202DE9F043BB
:106FCC0085B0D0F820900C9C05460F4690461E4686
:106FDC0000F064FA814505D1494800F06CFE0028A8
:106FEC0040F08A802B6A474A01924FF0000901A8B1
:106FFC0003938DF8089001F002F849464046FDF7DE
:10700C005FFF41498046012201A801F087F8414603
:10701C00FFF735F93FB13D49012201A801F07EF897
:10702C003946FFF72CF93EB13949012201A801F08C
:10703C0075F83146FFF723F92379DF070ED5A668DB
:10704C002F21304601F035FB00B1461C314901229D
:10705C0001A801F063F83146FFF711F923799E0777
:10706C0007D52D49022201A801F058F8E16800F07B
:10707C00D3FF2379580714D5266933461F4613F8D6
:10708C00012B2AB1202A01D11E46F7E7282AF5D177
:10709C002249022201A801F041F8BA1B314601F045
:1070AC004DF82379190707D51D49012201A801F0D4
:1070BC0035F8616900F0C2FF2379DA0608D504229D
:1070CC0018490DEB020001F029F8A16900F0A4FFAA
:1070DC0023799B0607D51449062201A801F01EF856
:1070EC00E169FFF7CCF801A800F073FF286A0F499B
:1070FC0003680222DB68984705B0BDE8F08300BF47
:10710C0020E70320088C0B00968B0B00A4890B0046
:10711C00B78F0B00E78B0B00E98B0B00EC8B0B0094
:10712C00EF8B0B00F18B0B00F68B0B00E48B0B0041
:10713C00024B1A68024B1A60704700BF44E50320EB
:10714C00E4E603200021FDF7D3BE000010B5044B8C
:10715C0003600446806908B1FEF70AFA204610BDA8
:10716C006C8D0B0010B50446FFF7F0FF20461C2178
:10717C00FCF7A1FF204610BD014B00229A6070471E
:10718C00E8E60320014B1860704700BF48E5032078
:10719C0008B50B4B43B100F081F903681B699847A4
:1071AC00002801DDAFF30080064B43B101F048F835
:1071BC0003681B699847002801DDAFF3008008BD08
:1071CC00000000000000000008B5FFF7E1FFFDF72C
:1071DC008BFC014B186008BD40E703200548064AAC
:1071EC00064908B5121A01F0C7F9054B054A1A6091
:1071FC0008BD00BF00F4032004F4032078910B00B9
:10720C0000F403201E1C279A07B5002300931A468E
:10721C006FF07701FDF786FE03B05DF804FB00000C
:10722C0007B543880A2B08D0502B0BD1094B1B6890
:10723C004BB103B05DF804EB1847FFF7E5FF03B063
:10724C005DF804FB002300931A466FF07701FDF7FD
:10725C0069FEF4E7FCE6032010B512480021FDF7A7
:10726C000BFF114B1A68114B9A42114B0CBF0122A8
:10727C0000221A7001D0FFF7B1FFFDF725FC044680
:10728C0001F0AAF90B4B13B12046AFF3008000219B
:10729C000848FDF7B1FEBDE8104007480021FDF796
:1072AC0037BE00BF91710B0000F403201E1C279AFF
:1072BC00F8E60320000000002D720B00704710B59B
:1072CC0018210446FCF7F7FE204610BDF0B5037DEF
:1072DC00062B8DB00E4600F104074FF0000412D0BF
:1072EC0000F1080515F8011D0A223046FEF717FFBC
:1072FC00AF42044419D0002CF4D02E213046FEF7B6
:10730C00F5FE0444EEE72F236A4639460A208DF831
:10731C000040FDF76DFC6846FCF784FE33680246BE
:10732C00DB68694630469847044620460DB0F0BDF0
:10733C0010B5054B0446112240F8043B002101F026
:10734C0043F9204610BD00BF9C8C0B000346074A36
:10735C0010B543F8042B01F1100251F8044B43F81B
:10736C00044B9142F9D10A781A7010BD9C8C0B0019
:10737C00037D042B04D14068003818BF01207047EE
:10738C00062B07D143683BB983682BB9C3681BB97B
:10739C000069F1E7002070470120704710B59DF897
:1073AC00084044EA032343EA024242EA016104230F
:1073BC004160037510BD000007B5064B0360CB7828
:1073CC0000938B784A780978FFF7E8FF03B05DF8F3
:1073DC0004FB00BF9C8C0B004174704770477047D6
:1073EC0008B50021007CFDF73BFD40EAE07008BDCC
:1073FC0008B50121007CFDF733FD40EAE07008BDC3
:10740C0008B5007CFDF724FD20EAE07008BD08B546
:10741C00007CFDF715FD20EAE07008BD13B50446AD
:10742C00007C0191FDF714FD0028019901DC607CC2
:10743C0020B1207CFDF71CFD20EAE07002B010BDED
:10744C00007CFDF71DBD10B514210446FCF733FE7E
:10745C00204610BD10B54FF47A730446084600213F
:10746C00C4E90113044B2360012320746374114697
:10747C00FDF7CEFC204610BDB08C0B00007C00222A
:10748C00FDF7CEBC007CFDF7D3BC10B5142204462E
:10749C00002101F099F8204610BD000010B50F4CEA
:1074AC0088B003A8FFF7F1FF2178BFF35B8F11F0D1
:1074BC0001010FD120460191FCF70CFE019948B156
:1074CC0003AA0748FFF7C6FF2046FCF708FE05484D
:1074DC0001F034F8024808B010BD00BF00E70320EB
:1074EC0004E70320E9730B0070474174704708B53B
:1074FC00007CFDF7CDFB20EAE07008BD08B5007CF0
:10750C00FDF79EFB20EAE07008BD08B5007CFDF796
:10751C00A7FB40EAE07008BD08B5007CFDF798FBBE
:10752C0040EAE07008BD007CFDF7A2BB37B5457C96
:10753C0004462DB1207C03B0BDE83040FDF778BB8C
:10754C00007C0191FDF7A4FB00280199F2DC284690
:10755C0003B030BD10B514210446FCF7ACFD204639
:10756C0010BD000010B54FF47A730446084611465E
:10757C000022C4E90123044B2360012320746374AB
:10758C00FDF796FB204610BDE08C0B00007C002321
:10759C00FDF786BB0022FFF7F9BF007CFDF740BB6F
:1075AC007047F8B5064615460C468F18BC4206D0F7
:1075BC00336814F8011B9B6830469847F6E7284659
:1075CC00F8BD007C0022FDF77BBB007C0021FDF7A1
:1075DC007FBB007C0021FDF783BB007C0021FDF705
:1075EC0087BB007C0021FDF78BBB10B51421044632
:1075FC00FCF761FD204610BD38B5044615464FF426
:10760C007A730022C4E90123094B217408462360D4
:10761C002946FDF785FBBF3008D16B69DB0705D523
:10762C006868FDF7F9FCE868FDF7F6FC204638BD04
:10763C00108D0B0013B503688DF80710DC6B01225D
:10764C004FF0FF330DF10701A04702B010BD10B48D
:10765C000368DC6B4FF0FF33A4465DF8044B6047C6
:10766C0013B5134602688DF80710D46B0DF10701A2
:10767C000122A04702B010BD10B54369B3F88620B3
:10768C00B3F884309A42044608D06369B3F8842076
:10769C00511CA3F884101344187910BD03681B699E
:1076AC0098470028F1D14FF0FF30F6E77047436957
:1076BC001868C043C00F704770470000064B9942D2
:1076CC0010B500F10C0405D0084600F025FE00288A
:1076DC0008BF0024204610BD848B0B0010B5AC21D4
:1076EC000446FCF7E8FC204610BDAC21FCF7E3BCDB
:1076FC002DE9F0414FF0000886B01C46C0F804801C
:10770C0005460E4617464146102202A800F05CFFC3
:10771C00631C09D04FF47A73B4FBF3F203FB1244ED
:10772C00CDE902285C430494686910230093006837
:10773C0002AB41F2050240F6FF71FDF7F9FA0028A1
:10774C0007DAFDF789FC03686B60002006B0BDE822
:10775C00F0816869002300683A463146FDF708FB62
:10776C00031EEEDB1846F1E730B587B0044601ADD9
:10777C006846FFF721FE0FCD04340FC42B6823702D
:10778C0007B030BD70B54D69054B04468C3544F8D7
:10779C00043B06460FCD0FC42B682370304670BDDA
:1077AC009C8C0B002DE9F0439846036893B00D4672
:1077BC000024DB6A06461746984728466B46224645
:1077CC0021460094FDF760F90546002863D1009B23
:1077DC00002B4BD05B69002B48D006A8FFF7A8FD07
:1077EC00009B5C696378022B04D1211D06A8FFF76E
:1077FC00BBFF26E00A2B24D11122294601A800F058
:10780C00E3FEA368002B38D004F108030DF1040C3F
:10781C00183418685968624603C20833A342944668
:10782C00F7D1062301A90CA88DF81430FFF78EFDB3
:10783C000DF1340CBCE80F0007AC0FC4DCF80030C1
:10784C00237006A8FFF794FD80B1336807ADD3F819
:10785C002090124B0C930FCD0DAC0FC42B682370E2
:10786C003A4643460CA93046C84705460098FDF7F2
:10787C0003F9284613B0BDE8F083E368002BC3D1AD
:10788C004FF6FF70D4F81090FDF7BAF98145BBD1D3
:10789C0004F11401AAE72546E8E700BF9C8C0B0015
:1078AC0038B543691A68002A054610DAB3F8862001
:1078BC00B3F884309A420AD103681B69984704468E
:1078CC0028B92B682846DB6A9847204638BD01202A
:1078DC00FCE710B54369B3F88620B3F884309A42BC
:1078EC00044605D06369B3F884201344187910BD9D
:1078FC0003681B6998470028F4D14FF0FF30F6E776
:10790C00F8B543691746B3F88620B3F884309A4229
:10791C0005460E4616D06969B1F88430B1F8864038
:10792C00E41ABC4228BF3C46043322461944304674
:10793C0000F022FE6A69B2F884302344A2F8843045
:10794C002046F8BD03681B6998470028E3D14FF027
:10795C00FF34F5E742690023A2F884304269A2F8AB
:10796C00863070472DE9F0411F4603680C46DB6AF0
:10797C008AB0054616469847237DD5F81480042B0B
:10798C000CBF02200A2006220121FDF7F9F9C8F8E4
:10799C0000006B691B68002B08DA2B682846DB6A31
:1079AC000024984720460AB0BDE8F0812846FFF72E
:1079BC00D1FFB7B1002303A9F8B20393ADF810308F
:1079CC00FDF77AF80028E8D168690623009300686F
:1079DC0003AB41F20B0240F6FF71FDF7A9F9002849
:1079EC00DBD11C22002103A800F0EEFD237D042B2B
:1079FC001DD14FF407733046ADF80C30FDF708F984
:107A0C00ADF80E006068FDF7FBF804906B691C2262
:107A1C00186803A9FDF79CF90028BED104340FCCDB
:107A2C006D698C350FC523682B700124BAE740F6BD
:107A3C001C233046ADF80C30FDF7EAF805AEADF876
:107A4C000E00231D04F1140718685968324603C24E
:107A5C000833BB421646F7D1D8E7000030B542696F
:107A6C00B2F886308BB004462BB1B2F884209A421F
:107A7C0001D1FFF76FFF61690868002818DBB1F8C6
:107A8C0086507F2D14D804310823C5F18002294477
:107A9C00FDF766F9002813DD6369B3F886200AB98F
:107AAC00A3F884206369B3F886201044A3F88600F9
:107ABC006369B3F88600B3F88430C01A0BB030BDDC
:107ACC00FDF7CAFA03680B2BF2D0FDF7C5FA036871
:107ADC000B2BEDD020230025CDE90235FDF7BCFAA8
:107AEC0003680193084B0949009302AA2B463220E4
:107AFC00FDF7D6F963691868FDF722F963694FF051
:107B0C00FF321A60D4E700BF378D0B00308D0B00AD
:107B1C0010B5436904461868002801DBFDF710F91D
:107B2C0063694FF0FF321A606069112200218C30BA
:107B3C0000F04AFD2046BDE81040FFF70BBF10B522
:107B4C00002304460160C0F884308830FFF7F0FB56
:107B5C00204610BD73B500234FF47A72C0E9013290
:107B6C000E4A0361026043610446AC200191FCF7AC
:107B7C009CFA051E05F10C0608D00123C5E901335A
:107B8C00074B01992B603046FFF7D9FF2046C4E91B
:107B9C000565FFF7DFFE02B070BD00BF6C8D0B00FA
:107BAC00508D0B0010B54FF0FF310446FFF7D2FF9C
:107BBC00204610BD10B504460068002801DBFDF717
:107BCC00BFF8204610BD0C30FFF7F4BF0022406810
:107BDC001146FDF7C9B9002240681146FDF7E4B91A
:107BEC00002240681146FDF7EFB940680022FDF70E
:107BFC00E3B94068002281F00101FDF7CDB9002303
:107C0C0040681A461946FDF7BFB9002340681A466A
:107C1C001946FDF7B1B9002240681146FDF794B939
:107C2C00406800220221FDF797B9002340681A46EC
:107C3C00FDF782B9024B04225A60024A1A6070475F
:107C4C0018E70320B88D0B00002340681A46FDF797
:107C5C0073B9406800220221FDF77EB9002240680A
:107C6C001146FDF771B9002240681146FDF77CB949
:107C7C00002340681A461946FDF77EB90023406878
:107C8C001A461946FDF780B940680021FDF7A4B9E2
:107C9C0040680021FDF7A8B94068002281F001017D
:107CAC00FDF77AB940680022FDF786B900224068DA
:107CBC001146FDF789B9002240681146FDF774B9E9
:107CCC002DE9F04395B014460D460746FFF730FBFF
:107CDC0000211C220DA8009100F076FC40230C938F
:107CEC0020466B460CAA0021FCF7CEFE0446002869
:107CFC004BD1024601216868FDF736F90221804616
:107D0C0022466868FDF730F9009E81462146002E18
:107D1C003BD0002939D17368022B03D00A2B11D028
:107D2C00F669F4E7B8F1000FFAD0716906A80431CE
:107D3C0007ADFFF741FB0FCD3C1D0FC42B68237023
:107D4C004146EDE7B9F1000FEAD07469102201A8A1
:107D5C0000F03AFC06238DF8143001AD04F1080351
:107D6C001834186859682A4603C20833A3421546CA
:107D7C00F7D101A906A807ADFFF7E8FA0FCD3C1D16
:107D8C000FC42B6823704946CAE70098FCF774FEB1
:107D9C00384615B0BDE8F083024B034A1A60002246
:107DAC005A60704720E70320F48D0B0000F110039C
:107DBC00012213F8101C0129184608D153F8041C91
:107DCC0002EB4102013A03F11003F2D17047022990
:107DDC0004BF53F8041C5218F4E70EB4F0B588B085
:107DEC0000AF07F13405102155F8042B7A600446D6
:107DFC002B467818FD60FDF71FF90F287A681AD901
:107E0C0000F1080323F007036E46ADEB030D411C94
:107E1C002B466846FD60FDF70FF9021E04DD236852
:107E2C0069469B6820469847B5462037BD46BDE855
:107E3C00F04003B070470028F7D0236802469B68D7
:107E4C0007F1100120469847EFE738B50B6803603F
:107E5C004D6843689D42044608D015B16B680133E8
:107E6C006B60606808B1FDF783FB656038BD07B5D2
:107E7C0003688DF807109B6801220DF107019847E4
:107E8C0003B05DF804FB0B461146002210B5C0E9A7
:107E9C000022044683600BB9204610BDFFF7D5FFC6
:107EAC00FAE78368EBB11A78032A1AD8DFE802F0F4
:107EBC000417021B0520704702685B685268D05C8F
:107ECC002D2812D0A0F13003092B0ED974280ED016
:107EDC0066280CD0A0F16E0358425841704706201A
:107EEC007047002070470420704703207047022021
:107EFC00704710B50446FFF7D4FF02280ED0C31EFE
:107F0C00DBB2012B14D82268A36850685B68BDE80B
:107F1C0010400A220021184400F062BC2268A368B9
:107F2C0052685B68D05CA0F174035842584110BD94
:107F3C000020FCE738B50023C0E9003304460E48A6
:107F4C00C4E90203A9B10B78032B06D08BB91368D3
:107F5C0058684B68C35C6E2B07D013684D68586823
:107F6C008B6828445B1BA060E36011462046FFF73A
:107F7C006CFF204638BD00BFE68B0B0038B50025E2
:107F8C000B46C0E90055C0E90255C0E9045504464A
:107F9C0011464BB11A78012A06D103F11002DB68A5
:107FAC0082604361FFF751FF204638BD10B543692D
:107FBC00044663B18068E060013B1030A060206132
:107FCC00636113B1FFF7F2FEA060012000E01846D8
:107FDC0010BD10B57D210446FFF749FF0123237125
:107FEC00204610BD08B50379012B02D0022B04D01A
:107FFC0008BD2C21FFF73BFFFAE73A21FAE710B551
:10800C000446FFF7EFFF20467B21FFF730FF0023EC
:10801C002371204610BD000013B504460191FFF7F3
:10802C00E1FF2368019ADB68034920469847012346
:10803C002046237102B010BD448D0B0013B50446CD
:10804C000191FFF7CFFF2368019ADB6803492046B3
:10805C00984701232046237102B010BD288E0B00D7
:10806C002DE9F0470D46222190460446FFF7FFFE0E
:10807C00DFF8A490A8442F464745BA463DD017F8E0
:10808C00016B222E06D05C2E04D0304600F05CFA38
:10809C000028F1D12368AAEB05029B6829462046EB
:1080AC0098475C212046FFF7E2FE0D2E0AD8072EDA
:1080BC001CD9A6F10803052B18D8DFE803F00D0F27
:1080CC0011171315222E01D05C2E0FD131462046EC
:1080DC00FFF7CDFE3D46CFE76221F8E77421F6E7C6
:1080EC006E21F4E76621F2E77221F0E7236832464D
:1080FC00DB68494620469847ECE7BD4205D023682B
:10810C007A1B9B6829462046984722212046FFF778
:10811C00AEFEBDE8F08700BF2B8E0B0013B50446F6
:10812C00CDE90021FFF75EFF2046DDE90021FFF7D6
:10813C0097FF02232046237102B010BD13B50446ED
:10814C00CDE90021FFF74EFF2046DDE90021FFF7C6
:10815C0087FF01232046237102B010BD232813B5DD
:10816C0002D9002002B010BDA0F10B03022B1AD8CB
:10817C00174C2178BFF35B8F11F001010BD1204616
:10818C000191FBF7A7FF019928B11248FCF7C0FF3A
:10819C002046FBF7A4FF0F4B1878FCF711FE0028C4
:1081AC00DFD10120DEE7012809D800F089F8002191
:1081BC00007CFCF7ADFD80F00100C0B2D2E70938BD
:1081CC000128EED800F03CF8007CFCF759FDF2E7F2
:1081DC00B0E50320B4E5032038B504460D46FCF7A2
:1081EC005BFCFF2810D0062804D84D2323FA00F09E
:1081FC00C30709D42046FFF7B1FF28B12946204612
:10820C00BDE83840FCF750BC38BD704738B5044663
:10821C0014252A46002100F0D7F92580402507496E
:10822C0025812846258200F071F8044960602846B3
:10823C0000F06CF8E060204638BD00BF318E0B00BA
:10824C0030B50E4D2978BFF35B8F11F0010487B068
:10825C0011D12846FBF73EFF68B101A8FFF7D6FF06
:10826C0001AA21460648FFF77DF92846FBF737FFA0
:10827C00044800F063F9024807B030BD28E703203A
:10828C002CE7032017820B007047000038B50A4B0F
:10829C0003600123044643610849202000F036F8AE
:1082AC00202560600549A560284600F02FF8C4E938
:1082BC000305204638BD00BF18000100318E0B00AD
:1082CC0030B50E4D2978BFF35B8F11F0010487B0E8
:1082DC0011D12846FBF7FEFE68B16846FFF7D6FFC2
:1082EC006A4621460648FFF787F92846FBF7F7FE52
:1082FC00044800F023F9024807B030BD44E70320DE
:10830C0048E7032095820B00FBF7CFBEFBF7CFBEEF
:10831C0008B5FCF799FE0000014900F0F9B800BF60
:10832C004C8E0B007FB500241023CDE9023403687A
:10833C0015469E6912686B46CDE90044B0479DF81E
:10834C00043003F00603062B03BF009B2B600120B7
:10835C00204604B070BD0098904214BF0120062046
:10836C007047000010B5034B0360044600F0CDF8D5
:10837C00204610BD8C8E0B0010B50446FFF7F2FFA3
:10838C0020460821FBF797FE204610BD2DE9F04151
:10839C001F46DDE90834DDF8188098450646154679
:1083AC0007D1079900F0B4F818B165710020BDE849
:1083BC00F0813946304600F0ABF80028F6D00123A6
:1083CC00C4F800802571A371F0E738B515461C463A
:1083DC0000F09EF820B10823E3600623256023718A
:1083EC0038BD73B505460C4601921E4600F090F858
:1083FC0050B9032E08D82368019A5B692946204698
:10840C0002B0BDE87040184702B070BD10B5034B08
:10841C0003600446FFF7A6FF204610BDEC8E0B0050
:10842C0010B50446FFF7F2FF20460C21FBF743FE84
:10843C00204610BDF7B5089F974205460E461446D8
:10844C000AD0A86802680897156A31462246AC46DD
:10845C0003B0BDE8F04060471946019300F058F8AE
:10846C00019B0028EDD0062003B0F0BD2DE9F14FA3
:10847C000D461946DDE90A4BDDE90CA68146174687
:10848C00984600F045F890B1002D3460377109DB47
:10849C0061198A450CBF06210121B171002001B080
:1084AC00BDE8F08F0235F9D10123B371F6E75445DD
:1084BC0006D15946484600F02BF808B17771EDE724
:1084CC00D9F808000368CDE90CA6CDE90A4BDC69A4
:1084DC003A4643462946A44601B0BDE8F04F6047F2
:1084EC002DE9F04107460C4615461E46FFF76DFF79
:1084FC0048B9B86803689F692A4633462146BC468A
:10850C00BDE8F0416047BDE8F0817047002070473E
:10851C00814208B50ED0406803782A2B0CD04968EC
:10852C000B782A2B08BF0131FBF772FDB0FA80F0F3
:10853C00400908BD0120FCE70020FAE700230146B2
:10854C001A46184600F056B9024B1844407800F011
:10855C0097007047B98F0B0010B501390244904257
:10856C0001D1002005E0037811F8014FA34201D09E
:10857C00181B10BD0130F2E70A44914200F1FF33A1
:10858C0000D1704710B511F8014B03F8014F91421F
:10859C00F9D110BD884210B501EB020402D9844216
:1085AC00234607D8431EA14208D011F8012B03F82B
:1085BC00012FF8E7024401468A4200D110BD13F89E
:1085CC00014D02F8014DF7E702440346934200D1F6
:1085DC00704703F8011BF9E738B5104B1D68AB6BFE
:1085EC000446B3B91820FCF70FFD0246A86320B966
:1085FC000B4B0C484221FCF737FD0B490B4BC0E9E8
:10860C0000130B4B83600B23838100210120C2E9F3
:10861C000401AB6B00221C615A6138BD48E5032094
:10862C00258F0B003C8F0B000E33CDAB34126DE657
:10863C00ECDE0500C9B2034610F8012B1AB18A42D0
:10864C00F9D118467047002918BF0023F9E710B577
:10865C000446FFF7EFFF18B92046FBF7E3FC204474
:10866C0010BD034611F8012B03F8012B002AF9D198
:10867C00704710B57AB103460139841813F8010B11
:10868C0011F8012F904201D1A34201D1801A10BDE3
:10869C000028F3D1FAE71046F9E710B50246014479
:1086AC008A42134603D01C780132002CF8D1181AD8
:1086BC0010BD38B503460C4669B9BDE83840FFF724
:1086CC00B9BF431C054621461846FFF7B3FF0028E7
:1086DC00F7D1284638BD0025F5E70000012B2DE920
:1086EC00F04701D0242B06D9FCF7B6FC1623036007
:1086FC000020BDE8F087DFF8E4C00D462E4615F8E3
:10870C00014B14F80C7017F00807F7D12D2C32D14F
:10871C002C780127B51C002B5BD0102B09D1302CE9
:10872C0007D12C7804F0DF04582C4DD16C78102331
:10873C00023507F1004808F1FF384FF0000CB8FB88
:10874C00F3F9664603FB198AA4F1300EBEF1090F4A
:10875C0016D87446A34224DDBCF1000F1EDBB145D4
:10876C001CD301D1A24519DB06FB03464FF0010CCB
:10877C0015F8014BE8E72B2C04BF2C78B51CCAE785
:10878C00A4F1410EBEF1190F01D8373CE2E7A4F178
:10879C00610EBEF1190F04D8573CDBE74FF0FF3CDC
:1087AC00E6E7BCF1000F05DA22230360464642B926
:1087BC0030469EE707B17642002AF9D0BCF1000F93
:1087CC0000D0691E1160F3E73024002BB1D10823CF
:1087DC00AFE7302CA5D00A23ABE700BFBA8F0B0054
:1087EC0013460A46014602480068FFF777BF00BFF0
:1087FC0048E503202DE9F843DFF8B8800646D8F8A1
:10880C0000001F460D46914600F056F8254B1C689B
:10881C0034B9254C1C60254B13B11B68C4F8883047
:10882C0063681F2B07DDD8F8000000F047F84FF005
:10883C00FF30BDE8F8834EB3D4F8880088B91C4BE0
:10884C0023B9D8F8000000F038F8F0E74FF4847042
:10885C00FCF7DAFB0028F4D00023C0E94033C4F85D
:10886C008800636840F8239001229A4000EB830152
:10887C00D0F800311343C0F80031022EC1F88070DB
:10888C0002BFD0F804311343C0F804316368D8F840
:10889C0000005A1C0233626044F8235000F00EF8BA
:1088AC000020C6E7E8E703205CE703200000000097
:1088BC0015500B00ACE50320704770477047000063
:1088CC00000000000000FB349B5F80000080001063
:1088DC00000000000000000041400B007D400B0038
:1088EC00A5400B00A9400B000000000043616C6C1C
:1088FC00206F6E2070757265207669727475616C6C
:10890C000064656661756C7420004D5342004C53D5
:10891C0042003C53504953657474696E677320640C
:10892C00656661756C743E003C53504953657474B4
:10893C00696E67732025732575202573204D4F4470
:10894C004525753E00646973636F6E6E656374656F
:10895C0064004241522F6172676F6E542F616363E2
:10896C00656C2F78004241522F6172676F6E542FE5
:10897C00616363656C2F79004241522F6172676F9E
:10898C006E542F616363656C2F7A006C61622E7478
:10899C00686577636C2E636F6D0061666537616324
:1089AC0063352D333361392D343738662D6262656A
:1089BC00312D383934346161303865383834000041
:1089CC00000000000000000069410B00F1400B00AA
:1089DC00F7400B0000000000000000000000000049
:1089EC0000000000C9400B00F3400B000000000029
:1089FC000000000005410B0039410B00ED6D0B0030
:108A0C00916F0B00646576696365206E6F742066E8
:108A1C006F756E6400000000000000000000000094
:108A2C00000000000000000041490B00C9400B0091
:108A3C00C9400B0000000000000000002F480B0094
:108A4C0031480B0063490B006F480B00B1480B0019
:108A5C003F480B0059480B000000000000000000CC
:108A6C00F3500B00E9500B00DF500B00D5500B00FE
:108A7C00C9500B00BD500B00957C0B009D7C0B006E
:108A8C00B1500B00A9500B009F500B0095500B00E0
:108A9C00CD7C0B000008101820283038417373650A
:108AAC007274696F6E4661696C7572652066616C73
:108ABC00736500776972696E672E626C650053741A
:108ACC0061727420646973636F766572696E672076
:108ADC0073657276696365732E0041737365727486
:108AEC00696F6E4661696C7572652068616C5F6256
:108AFC006C655F737461636B5F696E6974286E7506
:108B0C006C6C70747229203D3D2053595354454D63
:108B1C005F4552524F525F4E4F4E45004661696C55
:108B2C00656420746F20617070656E64207065657B
:108B3C00722043656E7472616C206465766963653E
:108B4C002E00436F6E6E65637465640044697363D5
:108B5C006F6E6E65637465640000000000000000B9
:108B6C0000000000BD540B00E1540B00B35A0B0085
:108B7C00EF540B00C1540B0000000000000000007B
:108B8C00626175640053657269616C00536572694A
:108B9C00616C31004A534F4E53747265616D4C6F6A
:108BAC006748616E646C65720061707000253031CD
:108BBC00307520005D20002C200028293A20002050
:108BCC005B00636F6465203D20002569006465745B
:108BDC0061696C73203D20000D0A0066006C6E000C
:108BEC00666E007400636F64650064657461696C23
:108BFC00000000000000000000000000E5610B0018
:108C0C000B620B00C9610B00E77D0B00000000003C
:108C1C000000000095660B00AD660B00ED6D0B00BF
:108C2C00916F0B000000000000000000C1660B00FB
:108C3C00D5660B00C96F0B00D1610B000000000062
:108C4C0000000000E3610B0019620B00516D0B007A
:108C5C00D3610B000000000000000000E1610B007C
:108C6C0027620B00FD650B0049620B0025592D2571
:108C7C006D2D25645425483A254D3A2553257A0007
:108C8C0061736374696D65000000000000000000F2
:108C9C00D9720B00C9720B00CB720B0000000000E4
:108CAC0000000000EB730B0053740B0029740B00D5
:108CBC00A1600B001B740B00ED730B00FD730B001C
:108CCC004D740B000D740B00E5730B0000000000DD
:108CDC0000000000F5740B0061750B0039750B007A
:108CEC00A1600B0009750B0025750B0017750B00A7
:108CFC0033750B00F7740B00FB740B0000000000C5
:108D0C0000000000AD750B00F7750B00CF750B0064
:108D1C00AF750B00D7750B00DF750B00E7750B00FB
:108D2C00EF750B00776972696E6700726563762068
:108D3C006572726F72203D202564000000000000F7
:108D4C0000000000C5760B00E9760B00D37B0B000E
:108D5C00F7760B00C9760B00000000000000000045
:108D6C0059710B0071710B0041760B005B760B0097
:108D7C00697A0B0085760B00DF780B00B9760B0057
:108D8C0071790B00B1770B000D790B001D7B0B007B
:108D9C00AD780B00BB760B006D760B00FD760B00EF
:108DAC0091770B000000000000000000377C0B00E6
:108DBC002D7C0B00237C0B00D97B0B00177C0B004C
:108DCC000B7C0B00957C0B009D7C0B00FF7B0B0040
:108DDC00F77B0B00ED7B0B00E37B0B00CD7C0B00DA
:108DEC000000000000000000557C0B005F7C0B00B5
:108DFC00697C0B00737C0B007D7C0B00897C0B0069
:108E0C00957C0B009D7C0B00A57C0B00B17C0B00B2
:108E1C00B97C0B00C37C0B00CD7C0B002575007559
:108E2C00253034780000537431395F53705F6D61B5
:108E3C006B655F7368617265645F746167000000E5
:108E4C008C8E0B00328E0B00EC8E0B00608E0B00A8
:108E5C00108F0B004E31305F5F63787861626976FA
:108E6C003131375F5F636C6173735F747970655F09
:108E7C00696E666F4500000000000000548E0B0008
:108E8C0071830B0085830B0019850B0019850B0072
:108E9C00EF830B0031830B00D7830B0099830B00FE
:108EAC0063830B00EC8E0B00BC8E0B00548E0B00FE
:108EBC004E31305F5F637878616269763132305F52
:108ECC005F73695F636C6173735F747970655F69FD
:108EDC006E666F450000000000000000B08E0B00B5
:108EEC0019840B002D840B0019850B0019850B00C0
:108EFC00EF830B0031830B00ED840B0079840B00A6
:108F0C0041840B008C8E0B00188F0B00537439743A
:108F1C007970655F696E666F005245454E54206DE1
:108F2C00616C6C6F63207375636365656465640065
:108F3C002F6D6E742F776F726B73706163652F7703
:108F4C006F726B73706163652F4743432D31302D06
:108F5C00706970656C696E652F6A656E6B696E738E
:108F6C002D4743432D31302D706970656C696E65EA
:108F7C002D34385F32303230313132345F3136306B
:108F8C00363138303634312F7372632F6E65776C0F
:108F9C0069622F6E65776C69622F6C6962632F73DF
:108FAC0074646C69622F72616E642E630000202001
:108FBC00202020202020202828282828202020207D
:108FCC00202020202020202020202020202088103D
:108FDC00101010101010101010101010101004049D
:108FEC0004040404040404041010101010101041A4
:108FFC004141414141010101010101010101010115
:10900C0001010101010101010110101010101042A9
:10901C0042424242420202020202020202020202E4
:10902C0002020202020202020210101010200000C2
:10903C000000000000000000000000000000000024
:10904C000000000000000000000000000000000014
:10905C000000000000000000000000000000000004
:10906C0000000000000000000000000000000000F4
:10907C0000000000000000000000000000000000E4
:10908C0000000000000000000000000000000000D4
:10909C0000000000000000000000000000000000C4
:1090AC0000000000000000000000000000000000B4
:1090BC0035440B00FD500B0075520B0091600B00FA
:1090CC00DD6D0B003D710B0085710B00417C0B00BD
:0490DC00A57D0B0063
:1090E000040000001400000003000000474E55007B
:1090F00021017CBC4D40B3E7F09305C974098A8F08
:049100001696724508
:10910400508C0B00688C0B008C8C0B004CE50320FE
:10911400000000000000000000000000000000004B
:10912400000000000000000000000000000000003B
:10913400000000000000000000000000000000002B
:10914400000000000000000000000000000000001B
:10915400000000000000000000000000000000000B
:1091640000000000000000000000000000000000FB
:04917400ECE7032001
:0491780000000000F3
:1091820000000102030405060708090A0B0C0D0E74
:109192000F101112131415161718191A1B1C1D1E65
:0491A2001F20280062
:0491A60078563412B1
:04000003B000401CED
:00000001FF
